{
  "_format": "hh-sol-artifact-1",
  "contractName": "NftMarketPlaceV2",
  "sourceName": "contracts/NftMarketplaceV2.sol",
  "abi": [
    {
      "inputs": [
        {
          "internalType": "address",
          "name": "_DutchAuctionFactory",
          "type": "address"
        },
        {
          "internalType": "address",
          "name": "_EngFactoryContract",
          "type": "address"
        },
        {
          "internalType": "address",
          "name": "forwarder",
          "type": "address"
        }
      ],
      "stateMutability": "nonpayable",
      "type": "constructor"
    },
    {
      "inputs": [
        {
          "internalType": "address",
          "name": "caller",
          "type": "address"
        },
        {
          "internalType": "uint256",
          "name": "tokenId",
          "type": "uint256"
        }
      ],
      "name": "NftMarketPlace__CallerIsOwnerOfToken",
      "type": "error"
    },
    {
      "inputs": [
        {
          "internalType": "address",
          "name": "requester",
          "type": "address"
        }
      ],
      "name": "NftMarketPlace__NotOwnerOfContract",
      "type": "error"
    },
    {
      "inputs": [
        {
          "internalType": "address",
          "name": "sender",
          "type": "address"
        },
        {
          "internalType": "uint256",
          "name": "tokenId",
          "type": "uint256"
        }
      ],
      "name": "NftMarketPlace__NotOwnerOfToken",
      "type": "error"
    },
    {
      "inputs": [
        {
          "internalType": "uint256",
          "name": "tokenId",
          "type": "uint256"
        }
      ],
      "name": "NftMarketPlace__TokenAlreadyOnSale",
      "type": "error"
    },
    {
      "inputs": [
        {
          "internalType": "uint256",
          "name": "tokenId",
          "type": "uint256"
        }
      ],
      "name": "NftMarketPlace__TokenIdUnderOne",
      "type": "error"
    },
    {
      "inputs": [
        {
          "internalType": "uint256",
          "name": "tokenId",
          "type": "uint256"
        }
      ],
      "name": "NftMarketPlace__TokenNotOnSale",
      "type": "error"
    },
    {
      "inputs": [
        {
          "internalType": "uint256",
          "name": "valueSend",
          "type": "uint256"
        }
      ],
      "name": "NftMarketPlace__UnequalToSellPrice",
      "type": "error"
    },
    {
      "inputs": [
        {
          "internalType": "address",
          "name": "sender",
          "type": "address"
        },
        {
          "internalType": "uint256",
          "name": "valueSend",
          "type": "uint256"
        }
      ],
      "name": "NftMarketPlace__invalidSellPrice",
      "type": "error"
    },
    {
      "anonymous": false,
      "inputs": [
        {
          "indexed": true,
          "internalType": "address",
          "name": "nftContractAddress",
          "type": "address"
        },
        {
          "indexed": false,
          "internalType": "uint256",
          "name": "tokenId",
          "type": "uint256"
        },
        {
          "indexed": false,
          "internalType": "uint256",
          "name": "price",
          "type": "uint256"
        },
        {
          "indexed": false,
          "internalType": "bool",
          "name": "onSale",
          "type": "bool"
        },
        {
          "indexed": false,
          "internalType": "address",
          "name": "owner",
          "type": "address"
        },
        {
          "indexed": true,
          "internalType": "address",
          "name": "seller",
          "type": "address"
        },
        {
          "indexed": false,
          "internalType": "address",
          "name": "minter",
          "type": "address"
        }
      ],
      "name": "marketItemBought",
      "type": "event"
    },
    {
      "anonymous": false,
      "inputs": [
        {
          "indexed": true,
          "internalType": "address",
          "name": "nftContractAddress",
          "type": "address"
        },
        {
          "indexed": false,
          "internalType": "uint256",
          "name": "tokenId",
          "type": "uint256"
        },
        {
          "indexed": false,
          "internalType": "uint256",
          "name": "price",
          "type": "uint256"
        },
        {
          "indexed": false,
          "internalType": "bool",
          "name": "onSale",
          "type": "bool"
        },
        {
          "indexed": false,
          "internalType": "address",
          "name": "owner",
          "type": "address"
        },
        {
          "indexed": true,
          "internalType": "address",
          "name": "seller",
          "type": "address"
        },
        {
          "indexed": false,
          "internalType": "address",
          "name": "minter",
          "type": "address"
        }
      ],
      "name": "marketItemOnSale",
      "type": "event"
    },
    {
      "stateMutability": "payable",
      "type": "fallback"
    },
    {
      "inputs": [],
      "name": "LISTINGPRICE",
      "outputs": [
        {
          "internalType": "uint256",
          "name": "",
          "type": "uint256"
        }
      ],
      "stateMutability": "view",
      "type": "function"
    },
    {
      "inputs": [
        {
          "internalType": "uint256",
          "name": "_startingPrice",
          "type": "uint256"
        },
        {
          "internalType": "uint256",
          "name": "_discountRate",
          "type": "uint256"
        },
        {
          "internalType": "address",
          "name": "_nft",
          "type": "address"
        },
        {
          "internalType": "uint256",
          "name": "_nftId",
          "type": "uint256"
        }
      ],
      "name": "McreateDutchAuction",
      "outputs": [],
      "stateMutability": "nonpayable",
      "type": "function"
    },
    {
      "inputs": [
        {
          "internalType": "address",
          "name": "_nft",
          "type": "address"
        },
        {
          "internalType": "uint256",
          "name": "_nftId",
          "type": "uint256"
        },
        {
          "internalType": "uint256",
          "name": "_startingBid",
          "type": "uint256"
        }
      ],
      "name": "McreateEngAuction",
      "outputs": [],
      "stateMutability": "nonpayable",
      "type": "function"
    },
    {
      "inputs": [
        {
          "internalType": "uint256",
          "name": "_tokenId",
          "type": "uint256"
        }
      ],
      "name": "buyMarketToken",
      "outputs": [],
      "stateMutability": "payable",
      "type": "function"
    },
    {
      "inputs": [],
      "name": "fetchAllMyTokens",
      "outputs": [
        {
          "components": [
            {
              "internalType": "uint256",
              "name": "tokenId",
              "type": "uint256"
            },
            {
              "internalType": "uint256",
              "name": "price",
              "type": "uint256"
            },
            {
              "internalType": "bool",
              "name": "onSale",
              "type": "bool"
            },
            {
              "internalType": "address payable",
              "name": "seller",
              "type": "address"
            }
          ],
          "internalType": "struct NftMarketPlaceV2.MarketToken[]",
          "name": "",
          "type": "tuple[]"
        }
      ],
      "stateMutability": "view",
      "type": "function"
    },
    {
      "inputs": [],
      "name": "fetchAllTokens",
      "outputs": [
        {
          "components": [
            {
              "internalType": "uint256",
              "name": "tokenId",
              "type": "uint256"
            },
            {
              "internalType": "uint256",
              "name": "price",
              "type": "uint256"
            },
            {
              "internalType": "bool",
              "name": "onSale",
              "type": "bool"
            },
            {
              "internalType": "address payable",
              "name": "seller",
              "type": "address"
            }
          ],
          "internalType": "struct NftMarketPlaceV2.MarketToken[]",
          "name": "",
          "type": "tuple[]"
        }
      ],
      "stateMutability": "view",
      "type": "function"
    },
    {
      "inputs": [],
      "name": "fetchAllTokensOnSale",
      "outputs": [
        {
          "components": [
            {
              "internalType": "uint256",
              "name": "tokenId",
              "type": "uint256"
            },
            {
              "internalType": "uint256",
              "name": "price",
              "type": "uint256"
            },
            {
              "internalType": "bool",
              "name": "onSale",
              "type": "bool"
            },
            {
              "internalType": "address payable",
              "name": "seller",
              "type": "address"
            }
          ],
          "internalType": "struct NftMarketPlaceV2.MarketToken[]",
          "name": "",
          "type": "tuple[]"
        }
      ],
      "stateMutability": "view",
      "type": "function"
    },
    {
      "inputs": [],
      "name": "getListingPrice",
      "outputs": [
        {
          "internalType": "uint256",
          "name": "",
          "type": "uint256"
        }
      ],
      "stateMutability": "pure",
      "type": "function"
    },
    {
      "inputs": [],
      "name": "getTrustedForwarder",
      "outputs": [
        {
          "internalType": "address",
          "name": "forwarder",
          "type": "address"
        }
      ],
      "stateMutability": "view",
      "type": "function"
    },
    {
      "inputs": [
        {
          "internalType": "uint256",
          "name": "",
          "type": "uint256"
        }
      ],
      "name": "idToMarketToken",
      "outputs": [
        {
          "internalType": "uint256",
          "name": "tokenId",
          "type": "uint256"
        },
        {
          "internalType": "uint256",
          "name": "price",
          "type": "uint256"
        },
        {
          "internalType": "bool",
          "name": "onSale",
          "type": "bool"
        },
        {
          "internalType": "address payable",
          "name": "seller",
          "type": "address"
        }
      ],
      "stateMutability": "view",
      "type": "function"
    },
    {
      "inputs": [
        {
          "internalType": "address",
          "name": "forwarder",
          "type": "address"
        }
      ],
      "name": "isTrustedForwarder",
      "outputs": [
        {
          "internalType": "bool",
          "name": "",
          "type": "bool"
        }
      ],
      "stateMutability": "view",
      "type": "function"
    },
    {
      "inputs": [
        {
          "internalType": "uint256",
          "name": "_tokenId",
          "type": "uint256"
        },
        {
          "internalType": "uint256",
          "name": "sellPrice",
          "type": "uint256"
        }
      ],
      "name": "sellMarketToken",
      "outputs": [],
      "stateMutability": "nonpayable",
      "type": "function"
    },
    {
      "inputs": [
        {
          "internalType": "address",
          "name": "_nftAddress",
          "type": "address"
        }
      ],
      "name": "setNftAddress",
      "outputs": [],
      "stateMutability": "nonpayable",
      "type": "function"
    },
    {
      "inputs": [],
      "name": "versionRecipient",
      "outputs": [
        {
          "internalType": "string",
          "name": "",
          "type": "string"
        }
      ],
      "stateMutability": "view",
      "type": "function"
    },
    {
      "inputs": [],
      "name": "withdrawContractsProfits",
      "outputs": [],
      "stateMutability": "nonpayable",
      "type": "function"
    }
  ],
  "bytecode": "0x60e06040526040518060400160405280600681526020017f76302e302e31000000000000000000000000000000000000000000000000000081525060059080519060200190620000519291906200024e565b503480156200005f57600080fd5b506040516200253338038062002533833981810160405281019062000085919062000368565b60016000819055506200009d6200015260201b60201c565b73ffffffffffffffffffffffffffffffffffffffff1660808173ffffffffffffffffffffffffffffffffffffffff16815250508273ffffffffffffffffffffffffffffffffffffffff1660a08173ffffffffffffffffffffffffffffffffffffffff16815250508173ffffffffffffffffffffffffffffffffffffffff1660c08173ffffffffffffffffffffffffffffffffffffffff168152505062000149816200016e60201b60201c565b50505062000428565b600062000169620001b260201b620017241760201c565b905090565b80600160006101000a81548173ffffffffffffffffffffffffffffffffffffffff021916908373ffffffffffffffffffffffffffffffffffffffff16021790555050565b60006014600036905010158015620001d75750620001d633620001f460201b60201c565b5b15620001ed57601436033560601c9050620001f1565b3390505b90565b6000600160009054906101000a900473ffffffffffffffffffffffffffffffffffffffff1673ffffffffffffffffffffffffffffffffffffffff168273ffffffffffffffffffffffffffffffffffffffff16149050919050565b8280546200025c90620003f3565b90600052602060002090601f016020900481019282620002805760008555620002cc565b82601f106200029b57805160ff1916838001178555620002cc565b82800160010185558215620002cc579182015b82811115620002cb578251825591602001919060010190620002ae565b5b509050620002db9190620002df565b5090565b5b80821115620002fa576000816000905550600101620002e0565b5090565b600080fd5b600073ffffffffffffffffffffffffffffffffffffffff82169050919050565b6000620003308262000303565b9050919050565b620003428162000323565b81146200034e57600080fd5b50565b600081519050620003628162000337565b92915050565b600080600060608486031215620003845762000383620002fe565b5b6000620003948682870162000351565b9350506020620003a78682870162000351565b9250506040620003ba8682870162000351565b9150509250925092565b7f4e487b7100000000000000000000000000000000000000000000000000000000600052602260045260246000fd5b600060028204905060018216806200040c57607f821691505b602082108103620004225762000421620003c4565b5b50919050565b60805160a05160c0516120d46200045f600039600061131a015260006105f001526000818161038a01526107bc01526120d46000f3fe6080604052600436106100ec5760003560e01c80637929d1b51161008a578063a5f21a9f11610059578063a5f21a9f146102e0578063a80df8c014610309578063ce1b815f14610334578063de3689d31461035f576100ed565b80637929d1b51461022e5780638abc87dd1461026e57806390effc831461028a5780639e65442c146102b5576100ed565b80633979e09b116100c65780633979e09b14610186578063486ff0cd146101af578063572b6c05146101da5780636a31d99214610217576100ed565b80630b102d1a1461010757806312e85585146101305780632528b6761461015b576100ed565b5b34600460008282546100ff91906117e3565b925050819055005b34801561011357600080fd5b5061012e6004803603810190610129919061189c565b610388565b005b34801561013c57600080fd5b5061014561046a565b60405161015291906118d8565b60405180910390f35b34801561016757600080fd5b50610170610479565b60405161017d9190611a42565b60405180910390f35b34801561019257600080fd5b506101ad60048036038101906101a89190611a90565b6105ee565b005b3480156101bb57600080fd5b506101c4610685565b6040516101d19190611b90565b60405180910390f35b3480156101e657600080fd5b5061020160048036038101906101fc919061189c565b610713565b60405161020e9190611bc1565b60405180910390f35b34801561022357600080fd5b5061022c61076d565b005b34801561023a57600080fd5b5061025560048036038101906102509190611bdc565b610920565b6040516102659493929190611c18565b60405180910390f35b61028860048036038101906102839190611bdc565b61097d565b005b34801561029657600080fd5b5061029f610e27565b6040516102ac9190611a42565b60405180910390f35b3480156102c157600080fd5b506102ca6110a5565b6040516102d79190611a42565b60405180910390f35b3480156102ec57600080fd5b5061030760048036038101906103029190611c5d565b611318565b005b34801561031557600080fd5b5061031e6113ac565b60405161032b91906118d8565b60405180910390f35b34801561034057600080fd5b506103496113b7565b6040516103569190611cbf565b60405180910390f35b34801561036b57600080fd5b5061038660048036038101906103819190611cda565b6113e1565b005b7f000000000000000000000000000000000000000000000000000000000000000073ffffffffffffffffffffffffffffffffffffffff166103c761175b565b73ffffffffffffffffffffffffffffffffffffffff1614610426576103ea61175b565b6040517fbb324d9400000000000000000000000000000000000000000000000000000000815260040161041d9190611cbf565b60405180910390fd5b80600660006101000a81548173ffffffffffffffffffffffffffffffffffffffff021916908373ffffffffffffffffffffffffffffffffffffffff16021790555050565b600066071afd498d0000905090565b60606000600660009054906101000a900473ffffffffffffffffffffffffffffffffffffffff1673ffffffffffffffffffffffffffffffffffffffff1663627f0c286040518163ffffffff1660e01b8152600401602060405180830381865afa1580156104ea573d6000803e3d6000fd5b505050506040513d601f19601f8201168201806040525081019061050e9190611d2f565b905060008167ffffffffffffffff81111561052c5761052b611d5c565b5b60405190808252806020026020018201604052801561056557816020015b61055261176a565b81526020019060019003908161054a5790505b50905060005b8281116105e55760405180608001604052808281526020016000815260200160001515815260200161059b61175b565b73ffffffffffffffffffffffffffffffffffffffff168152508282815181106105c7576105c6611d8b565b5b602002602001018190525080806105dd90611dba565b91505061056b565b50809250505090565b7f000000000000000000000000000000000000000000000000000000000000000073ffffffffffffffffffffffffffffffffffffffff1663e16ca6c0858585856040518563ffffffff1660e01b815260040161064d9493929190611e02565b600060405180830381600087803b15801561066757600080fd5b505af115801561067b573d6000803e3d6000fd5b5050505050505050565b6005805461069290611e76565b80601f01602080910402602001604051908101604052809291908181526020018280546106be90611e76565b801561070b5780601f106106e05761010080835404028352916020019161070b565b820191906000526020600020905b8154815290600101906020018083116106ee57829003601f168201915b505050505081565b6000600160009054906101000a900473ffffffffffffffffffffffffffffffffffffffff1673ffffffffffffffffffffffffffffffffffffffff168273ffffffffffffffffffffffffffffffffffffffff16149050919050565b6002600054036107b2576040517f08c379a00000000000000000000000000000000000000000000000000000000081526004016107a990611ef3565b60405180910390fd5b60026000819055507f000000000000000000000000000000000000000000000000000000000000000073ffffffffffffffffffffffffffffffffffffffff166107f961175b565b73ffffffffffffffffffffffffffffffffffffffff16146108585761081c61175b565b6040517fbb324d9400000000000000000000000000000000000000000000000000000000815260040161084f9190611cbf565b60405180910390fd5b600061086261175b565b73ffffffffffffffffffffffffffffffffffffffff1660045460405161088790611f44565b60006040518083038185875af1925050503d80600081146108c4576040519150601f19603f3d011682016040523d82523d6000602084013e6108c9565b606091505b505090508061090d576040517f08c379a000000000000000000000000000000000000000000000000000000000815260040161090490611fa5565b60405180910390fd5b6000600481905550506001600081905550565b60036020528060005260406000206000915090508060000154908060010154908060020160009054906101000a900460ff16908060020160019054906101000a900473ffffffffffffffffffffffffffffffffffffffff16905084565b6002600054036109c2576040517f08c379a00000000000000000000000000000000000000000000000000000000081526004016109b990611ef3565b60405180910390fd5b600260008190555060008111610a0f57806040517f681f5615000000000000000000000000000000000000000000000000000000008152600401610a0691906118d8565b60405180910390fd5b600115156003600083815260200190815260200160002060020160009054906101000a900460ff16151514610a7b57806040517f61e4bceb000000000000000000000000000000000000000000000000000000008152600401610a7291906118d8565b60405180910390fd5b60036000828152602001908152602001600020600101543414610ad557346040517f45f11e18000000000000000000000000000000000000000000000000000000008152600401610acc91906118d8565b60405180910390fd5b600660009054906101000a900473ffffffffffffffffffffffffffffffffffffffff1673ffffffffffffffffffffffffffffffffffffffff16636352211e826040518263ffffffff1660e01b8152600401610b3091906118d8565b602060405180830381865afa158015610b4d573d6000803e3d6000fd5b505050506040513d601f19601f82011682018060405250810190610b719190611fda565b73ffffffffffffffffffffffffffffffffffffffff16610b8f61175b565b73ffffffffffffffffffffffffffffffffffffffff1603610bf057610bb261175b565b816040517fbb4cd47d000000000000000000000000000000000000000000000000000000008152600401610be7929190612007565b60405180910390fd5b6003600082815260200190815260200160002060020160019054906101000a900473ffffffffffffffffffffffffffffffffffffffff1673ffffffffffffffffffffffffffffffffffffffff16610c4561175b565b73ffffffffffffffffffffffffffffffffffffffff1603610ca657610c6861175b565b816040517fbb4cd47d000000000000000000000000000000000000000000000000000000008152600401610c9d929190612007565b60405180910390fd5b600660009054906101000a900473ffffffffffffffffffffffffffffffffffffffff1673ffffffffffffffffffffffffffffffffffffffff166323b872dd30610ced61175b565b846040518463ffffffff1660e01b8152600401610d0c93929190612030565b600060405180830381600087803b158015610d2657600080fd5b505af1158015610d3a573d6000803e3d6000fd5b505050506003600082815260200190815260200160002060020160019054906101000a900473ffffffffffffffffffffffffffffffffffffffff1673ffffffffffffffffffffffffffffffffffffffff166108fc349081150290604051600060405180830381858888f19350505050158015610dba573d6000803e3d6000fd5b506003600082815260200190815260200160002060008082016000905560018201600090556002820160006101000a81549060ff02191690556002820160016101000a81549073ffffffffffffffffffffffffffffffffffffffff02191690555050600160008190555050565b60606000600660009054906101000a900473ffffffffffffffffffffffffffffffffffffffff1673ffffffffffffffffffffffffffffffffffffffff1663627f0c286040518163ffffffff1660e01b8152600401602060405180830381865afa158015610e98573d6000803e3d6000fd5b505050506040513d601f19601f82011682018060405250810190610ebc9190611d2f565b9050600080600190505b828111610f1f57600115156003600083815260200190815260200160002060020160009054906101000a900460ff16151503610f0c57600182610f0991906117e3565b91505b8080610f1790611dba565b915050610ec6565b5060008167ffffffffffffffff811115610f3c57610f3b611d5c565b5b604051908082528060200260200182016040528015610f7557816020015b610f6261176a565b815260200190600190039081610f5a5790505b509050600080600190505b84811161109a57600115156003600083815260200190815260200160002060020160009054906101000a900460ff16151503611087576003600082815260200190815260200160002060405180608001604052908160008201548152602001600182015481526020016002820160009054906101000a900460ff161515151581526020016002820160019054906101000a900473ffffffffffffffffffffffffffffffffffffffff1673ffffffffffffffffffffffffffffffffffffffff1673ffffffffffffffffffffffffffffffffffffffff168152505083838151811061106c5761106b611d8b565b5b602002602001018190525060018261108491906117e3565b91505b808061109290611dba565b915050610f80565b508194505050505090565b60606000600660009054906101000a900473ffffffffffffffffffffffffffffffffffffffff1673ffffffffffffffffffffffffffffffffffffffff166370a082316110ef61175b565b6040518263ffffffff1660e01b815260040161110b9190611cbf565b602060405180830381865afa158015611128573d6000803e3d6000fd5b505050506040513d601f19601f8201168201806040525081019061114c9190611d2f565b90506000808267ffffffffffffffff81111561116b5761116a611d5c565b5b6040519080825280602002602001820160405280156111a457816020015b61119161176a565b8152602001906001900390816111895790505b50905060005b82841161130e576000600660009054906101000a900473ffffffffffffffffffffffffffffffffffffffff1673ffffffffffffffffffffffffffffffffffffffff16636352211e836040518263ffffffff1660e01b815260040161120e91906118d8565b602060405180830381865afa15801561122b573d6000803e3d6000fd5b505050506040513d601f19601f8201168201806040525081019061124f9190611fda565b905061125961175b565b73ffffffffffffffffffffffffffffffffffffffff168173ffffffffffffffffffffffffffffffffffffffff16036112fa57838061129690611dba565b9450506040518060800160405280838152602001600081526020016000151581526020016112c261175b565b73ffffffffffffffffffffffffffffffffffffffff168152508385815181106112ee576112ed611d8b565b5b60200260200101819052505b50808061130690611dba565b9150506111aa565b5080935050505090565b7f000000000000000000000000000000000000000000000000000000000000000073ffffffffffffffffffffffffffffffffffffffff16639762bb0d8484846040518463ffffffff1660e01b815260040161137593929190612067565b600060405180830381600087803b15801561138f57600080fd5b505af11580156113a3573d6000803e3d6000fd5b50505050505050565b66071afd498d000081565b6000600160009054906101000a900473ffffffffffffffffffffffffffffffffffffffff16905090565b6000811161142f576113f161175b565b816040517fab30c829000000000000000000000000000000000000000000000000000000008152600401611426929190612007565b60405180910390fd5b600115156003600084815260200190815260200160002060020160009054906101000a900460ff1615150361149b57816040517f8d4ee15a00000000000000000000000000000000000000000000000000000000815260040161149291906118d8565b60405180910390fd5b6114a361175b565b73ffffffffffffffffffffffffffffffffffffffff16600660009054906101000a900473ffffffffffffffffffffffffffffffffffffffff1673ffffffffffffffffffffffffffffffffffffffff16636352211e846040518263ffffffff1660e01b815260040161151491906118d8565b602060405180830381865afa158015611531573d6000803e3d6000fd5b505050506040513d601f19601f820116820180604052508101906115559190611fda565b73ffffffffffffffffffffffffffffffffffffffff16146115b65761157861175b565b826040517f814d13790000000000000000000000000000000000000000000000000000000081526004016115ad929190612007565b60405180910390fd5b600660009054906101000a900473ffffffffffffffffffffffffffffffffffffffff1673ffffffffffffffffffffffffffffffffffffffff166323b872dd6115fc61175b565b30856040518463ffffffff1660e01b815260040161161c93929190612030565b600060405180830381600087803b15801561163657600080fd5b505af115801561164a573d6000803e3d6000fd5b50505050604051806080016040528083815260200182815260200160011515815260200161167661175b565b73ffffffffffffffffffffffffffffffffffffffff1681525060036000848152602001908152602001600020600082015181600001556020820151816001015560408201518160020160006101000a81548160ff02191690831515021790555060608201518160020160016101000a81548173ffffffffffffffffffffffffffffffffffffffff021916908373ffffffffffffffffffffffffffffffffffffffff1602179055509050505050565b60006014600036905010158015611740575061173f33610713565b5b1561175457601436033560601c9050611758565b3390505b90565b6000611765611724565b905090565b60405180608001604052806000815260200160008152602001600015158152602001600073ffffffffffffffffffffffffffffffffffffffff1681525090565b6000819050919050565b7f4e487b7100000000000000000000000000000000000000000000000000000000600052601160045260246000fd5b60006117ee826117aa565b91506117f9836117aa565b9250827fffffffffffffffffffffffffffffffffffffffffffffffffffffffffffffffff0382111561182e5761182d6117b4565b5b828201905092915050565b600080fd5b600073ffffffffffffffffffffffffffffffffffffffff82169050919050565b60006118698261183e565b9050919050565b6118798161185e565b811461188457600080fd5b50565b60008135905061189681611870565b92915050565b6000602082840312156118b2576118b1611839565b5b60006118c084828501611887565b91505092915050565b6118d2816117aa565b82525050565b60006020820190506118ed60008301846118c9565b92915050565b600081519050919050565b600082825260208201905092915050565b6000819050602082019050919050565b611928816117aa565b82525050565b60008115159050919050565b6119438161192e565b82525050565b60006119548261183e565b9050919050565b61196481611949565b82525050565b608082016000820151611980600085018261191f565b506020820151611993602085018261191f565b5060408201516119a6604085018261193a565b5060608201516119b9606085018261195b565b50505050565b60006119cb838361196a565b60808301905092915050565b6000602082019050919050565b60006119ef826118f3565b6119f981856118fe565b9350611a048361190f565b8060005b83811015611a35578151611a1c88826119bf565b9750611a27836119d7565b925050600181019050611a08565b5085935050505092915050565b60006020820190508181036000830152611a5c81846119e4565b905092915050565b611a6d816117aa565b8114611a7857600080fd5b50565b600081359050611a8a81611a64565b92915050565b60008060008060808587031215611aaa57611aa9611839565b5b6000611ab887828801611a7b565b9450506020611ac987828801611a7b565b9350506040611ada87828801611887565b9250506060611aeb87828801611a7b565b91505092959194509250565b600081519050919050565b600082825260208201905092915050565b60005b83811015611b31578082015181840152602081019050611b16565b83811115611b40576000848401525b50505050565b6000601f19601f8301169050919050565b6000611b6282611af7565b611b6c8185611b02565b9350611b7c818560208601611b13565b611b8581611b46565b840191505092915050565b60006020820190508181036000830152611baa8184611b57565b905092915050565b611bbb8161192e565b82525050565b6000602082019050611bd66000830184611bb2565b92915050565b600060208284031215611bf257611bf1611839565b5b6000611c0084828501611a7b565b91505092915050565b611c1281611949565b82525050565b6000608082019050611c2d60008301876118c9565b611c3a60208301866118c9565b611c476040830185611bb2565b611c546060830184611c09565b95945050505050565b600080600060608486031215611c7657611c75611839565b5b6000611c8486828701611887565b9350506020611c9586828701611a7b565b9250506040611ca686828701611a7b565b9150509250925092565b611cb98161185e565b82525050565b6000602082019050611cd46000830184611cb0565b92915050565b60008060408385031215611cf157611cf0611839565b5b6000611cff85828601611a7b565b9250506020611d1085828601611a7b565b9150509250929050565b600081519050611d2981611a64565b92915050565b600060208284031215611d4557611d44611839565b5b6000611d5384828501611d1a565b91505092915050565b7f4e487b7100000000000000000000000000000000000000000000000000000000600052604160045260246000fd5b7f4e487b7100000000000000000000000000000000000000000000000000000000600052603260045260246000fd5b6000611dc5826117aa565b91507fffffffffffffffffffffffffffffffffffffffffffffffffffffffffffffffff8203611df757611df66117b4565b5b600182019050919050565b6000608082019050611e1760008301876118c9565b611e2460208301866118c9565b611e316040830185611cb0565b611e3e60608301846118c9565b95945050505050565b7f4e487b7100000000000000000000000000000000000000000000000000000000600052602260045260246000fd5b60006002820490506001821680611e8e57607f821691505b602082108103611ea157611ea0611e47565b5b50919050565b7f5265656e7472616e637947756172643a207265656e7472616e742063616c6c00600082015250565b6000611edd601f83611b02565b9150611ee882611ea7565b602082019050919050565b60006020820190508181036000830152611f0c81611ed0565b9050919050565b600081905092915050565b50565b6000611f2e600083611f13565b9150611f3982611f1e565b600082019050919050565b6000611f4f82611f21565b9150819050919050565b7f5061796d656e74207761736e2774207375636365737366756c6c000000000000600082015250565b6000611f8f601a83611b02565b9150611f9a82611f59565b602082019050919050565b60006020820190508181036000830152611fbe81611f82565b9050919050565b600081519050611fd481611870565b92915050565b600060208284031215611ff057611fef611839565b5b6000611ffe84828501611fc5565b91505092915050565b600060408201905061201c6000830185611cb0565b61202960208301846118c9565b9392505050565b60006060820190506120456000830186611cb0565b6120526020830185611cb0565b61205f60408301846118c9565b949350505050565b600060608201905061207c6000830186611cb0565b61208960208301856118c9565b61209660408301846118c9565b94935050505056fea2646970667358221220e102ce3f909af296e5054f388fdec08bd7e8b5de97049d031ad609b02f1e5cad64736f6c634300080d0033",
  "linkReferences": {},
  "deployedLinkReferences": {}
}