{
  "_format": "hh-sol-artifact-1",
  "contractName": "NftMarketPlaceV2",
  "sourceName": "contracts/NftMarketplaceV2.sol",
  "abi": [
    {
      "inputs": [
        {
          "internalType": "address",
          "name": "_DutchAuctionFactory",
          "type": "address"
        },
        {
          "internalType": "address",
          "name": "_EngFactoryContract",
          "type": "address"
        },
        {
          "internalType": "address",
          "name": "forwarder",
          "type": "address"
        }
      ],
      "stateMutability": "nonpayable",
      "type": "constructor"
    },
    {
      "inputs": [
        {
          "internalType": "address",
          "name": "caller",
          "type": "address"
        },
        {
          "internalType": "uint256",
          "name": "tokenId",
          "type": "uint256"
        }
      ],
      "name": "NftMarketPlace__CallerIsOwnerOfToken",
      "type": "error"
    },
    {
      "inputs": [
        {
          "internalType": "address",
          "name": "requester",
          "type": "address"
        }
      ],
      "name": "NftMarketPlace__NotOwnerOfContract",
      "type": "error"
    },
    {
      "inputs": [
        {
          "internalType": "address",
          "name": "sender",
          "type": "address"
        },
        {
          "internalType": "uint256",
          "name": "tokenId",
          "type": "uint256"
        }
      ],
      "name": "NftMarketPlace__NotOwnerOfToken",
      "type": "error"
    },
    {
      "inputs": [
        {
          "internalType": "uint256",
          "name": "tokenId",
          "type": "uint256"
        }
      ],
      "name": "NftMarketPlace__TokenAlreadyOnSale",
      "type": "error"
    },
    {
      "inputs": [
        {
          "internalType": "uint256",
          "name": "tokenId",
          "type": "uint256"
        }
      ],
      "name": "NftMarketPlace__TokenIdUnderOne",
      "type": "error"
    },
    {
      "inputs": [
        {
          "internalType": "uint256",
          "name": "tokenId",
          "type": "uint256"
        }
      ],
      "name": "NftMarketPlace__TokenNotOnSale",
      "type": "error"
    },
    {
      "inputs": [
        {
          "internalType": "uint256",
          "name": "valueSend",
          "type": "uint256"
        }
      ],
      "name": "NftMarketPlace__UnequalToSellPrice",
      "type": "error"
    },
    {
      "inputs": [
        {
          "internalType": "address",
          "name": "sender",
          "type": "address"
        },
        {
          "internalType": "uint256",
          "name": "valueSend",
          "type": "uint256"
        }
      ],
      "name": "NftMarketPlace__invalidSellPrice",
      "type": "error"
    },
    {
      "anonymous": false,
      "inputs": [
        {
          "indexed": true,
          "internalType": "address",
          "name": "nftContractAddress",
          "type": "address"
        },
        {
          "indexed": false,
          "internalType": "uint256",
          "name": "tokenId",
          "type": "uint256"
        },
        {
          "indexed": false,
          "internalType": "uint256",
          "name": "price",
          "type": "uint256"
        },
        {
          "indexed": false,
          "internalType": "bool",
          "name": "onSale",
          "type": "bool"
        },
        {
          "indexed": false,
          "internalType": "address",
          "name": "owner",
          "type": "address"
        },
        {
          "indexed": true,
          "internalType": "address",
          "name": "seller",
          "type": "address"
        }
      ],
      "name": "marketItemBought",
      "type": "event"
    },
    {
      "anonymous": false,
      "inputs": [
        {
          "indexed": true,
          "internalType": "address",
          "name": "nftContractAddress",
          "type": "address"
        },
        {
          "indexed": true,
          "internalType": "uint256",
          "name": "tokenId",
          "type": "uint256"
        },
        {
          "indexed": false,
          "internalType": "uint256",
          "name": "price",
          "type": "uint256"
        },
        {
          "indexed": false,
          "internalType": "bool",
          "name": "onSale",
          "type": "bool"
        },
        {
          "indexed": false,
          "internalType": "address",
          "name": "owner",
          "type": "address"
        },
        {
          "indexed": true,
          "internalType": "address",
          "name": "seller",
          "type": "address"
        }
      ],
      "name": "marketItemOnSale",
      "type": "event"
    },
    {
      "stateMutability": "payable",
      "type": "fallback"
    },
    {
      "inputs": [],
      "name": "LISTINGPRICE",
      "outputs": [
        {
          "internalType": "uint256",
          "name": "",
          "type": "uint256"
        }
      ],
      "stateMutability": "view",
      "type": "function"
    },
    {
      "inputs": [
        {
          "internalType": "uint256",
          "name": "_startingPrice",
          "type": "uint256"
        },
        {
          "internalType": "uint256",
          "name": "_discountRate",
          "type": "uint256"
        },
        {
          "internalType": "address",
          "name": "_nft",
          "type": "address"
        },
        {
          "internalType": "uint256",
          "name": "_nftId",
          "type": "uint256"
        }
      ],
      "name": "McreateDutchAuction",
      "outputs": [],
      "stateMutability": "nonpayable",
      "type": "function"
    },
    {
      "inputs": [
        {
          "internalType": "address",
          "name": "_nft",
          "type": "address"
        },
        {
          "internalType": "uint256",
          "name": "_nftId",
          "type": "uint256"
        },
        {
          "internalType": "uint256",
          "name": "_startingBid",
          "type": "uint256"
        }
      ],
      "name": "McreateEngAuction",
      "outputs": [],
      "stateMutability": "nonpayable",
      "type": "function"
    },
    {
      "inputs": [
        {
          "internalType": "uint256",
          "name": "_tokenId",
          "type": "uint256"
        }
      ],
      "name": "buyMarketToken",
      "outputs": [],
      "stateMutability": "payable",
      "type": "function"
    },
    {
      "inputs": [],
      "name": "fetchAllMyTokens",
      "outputs": [
        {
          "components": [
            {
              "internalType": "uint256",
              "name": "tokenId",
              "type": "uint256"
            },
            {
              "internalType": "uint256",
              "name": "price",
              "type": "uint256"
            },
            {
              "internalType": "bool",
              "name": "onSale",
              "type": "bool"
            },
            {
              "internalType": "address payable",
              "name": "seller",
              "type": "address"
            }
          ],
          "internalType": "struct NftMarketPlaceV2.MarketToken[]",
          "name": "",
          "type": "tuple[]"
        }
      ],
      "stateMutability": "view",
      "type": "function"
    },
    {
      "inputs": [],
      "name": "fetchAllTokens",
      "outputs": [
        {
          "components": [
            {
              "internalType": "uint256",
              "name": "tokenId",
              "type": "uint256"
            },
            {
              "internalType": "uint256",
              "name": "price",
              "type": "uint256"
            },
            {
              "internalType": "bool",
              "name": "onSale",
              "type": "bool"
            },
            {
              "internalType": "address payable",
              "name": "seller",
              "type": "address"
            }
          ],
          "internalType": "struct NftMarketPlaceV2.MarketToken[]",
          "name": "",
          "type": "tuple[]"
        }
      ],
      "stateMutability": "view",
      "type": "function"
    },
    {
      "inputs": [],
      "name": "fetchAllTokensOnSale",
      "outputs": [
        {
          "components": [
            {
              "internalType": "uint256",
              "name": "tokenId",
              "type": "uint256"
            },
            {
              "internalType": "uint256",
              "name": "price",
              "type": "uint256"
            },
            {
              "internalType": "bool",
              "name": "onSale",
              "type": "bool"
            },
            {
              "internalType": "address payable",
              "name": "seller",
              "type": "address"
            }
          ],
          "internalType": "struct NftMarketPlaceV2.MarketToken[]",
          "name": "",
          "type": "tuple[]"
        }
      ],
      "stateMutability": "view",
      "type": "function"
    },
    {
      "inputs": [],
      "name": "getListingPrice",
      "outputs": [
        {
          "internalType": "uint256",
          "name": "",
          "type": "uint256"
        }
      ],
      "stateMutability": "pure",
      "type": "function"
    },
    {
      "inputs": [],
      "name": "getTrustedForwarder",
      "outputs": [
        {
          "internalType": "address",
          "name": "forwarder",
          "type": "address"
        }
      ],
      "stateMutability": "view",
      "type": "function"
    },
    {
      "inputs": [
        {
          "internalType": "uint256",
          "name": "",
          "type": "uint256"
        }
      ],
      "name": "idToMarketToken",
      "outputs": [
        {
          "internalType": "uint256",
          "name": "tokenId",
          "type": "uint256"
        },
        {
          "internalType": "uint256",
          "name": "price",
          "type": "uint256"
        },
        {
          "internalType": "bool",
          "name": "onSale",
          "type": "bool"
        },
        {
          "internalType": "address payable",
          "name": "seller",
          "type": "address"
        }
      ],
      "stateMutability": "view",
      "type": "function"
    },
    {
      "inputs": [
        {
          "internalType": "address",
          "name": "forwarder",
          "type": "address"
        }
      ],
      "name": "isTrustedForwarder",
      "outputs": [
        {
          "internalType": "bool",
          "name": "",
          "type": "bool"
        }
      ],
      "stateMutability": "view",
      "type": "function"
    },
    {
      "inputs": [],
      "name": "nftAddress",
      "outputs": [
        {
          "internalType": "address",
          "name": "",
          "type": "address"
        }
      ],
      "stateMutability": "view",
      "type": "function"
    },
    {
      "inputs": [
        {
          "internalType": "uint256",
          "name": "_tokenId",
          "type": "uint256"
        },
        {
          "internalType": "uint256",
          "name": "sellPrice",
          "type": "uint256"
        }
      ],
      "name": "sellMarketToken",
      "outputs": [],
      "stateMutability": "nonpayable",
      "type": "function"
    },
    {
      "inputs": [
        {
          "internalType": "address",
          "name": "_nftAddress",
          "type": "address"
        }
      ],
      "name": "setNftAddress",
      "outputs": [],
      "stateMutability": "nonpayable",
      "type": "function"
    },
    {
      "inputs": [],
      "name": "versionRecipient",
      "outputs": [
        {
          "internalType": "string",
          "name": "",
          "type": "string"
        }
      ],
      "stateMutability": "view",
      "type": "function"
    },
    {
      "inputs": [],
      "name": "withdrawContractsProfits",
      "outputs": [],
      "stateMutability": "nonpayable",
      "type": "function"
    }
  ],
  "bytecode": "0x60e06040526000600560006101000a81548173ffffffffffffffffffffffffffffffffffffffff021916908373ffffffffffffffffffffffffffffffffffffffff1602179055506040518060400160405280600681526020017f76302e302e310000000000000000000000000000000000000000000000000000815250600690805190602001906200009392919062000290565b50348015620000a157600080fd5b5060405162002988380380620029888339818101604052810190620000c79190620003aa565b6001600081905550620000df6200019460201b60201c565b73ffffffffffffffffffffffffffffffffffffffff1660808173ffffffffffffffffffffffffffffffffffffffff16815250508273ffffffffffffffffffffffffffffffffffffffff1660a08173ffffffffffffffffffffffffffffffffffffffff16815250508173ffffffffffffffffffffffffffffffffffffffff1660c08173ffffffffffffffffffffffffffffffffffffffff16815250506200018b81620001b060201b60201c565b5050506200046a565b6000620001ab620001f460201b620019f91760201c565b905090565b80600160006101000a81548173ffffffffffffffffffffffffffffffffffffffff021916908373ffffffffffffffffffffffffffffffffffffffff16021790555050565b6000601460003690501015801562000219575062000218336200023660201b60201c565b5b156200022f57601436033560601c905062000233565b3390505b90565b6000600160009054906101000a900473ffffffffffffffffffffffffffffffffffffffff1673ffffffffffffffffffffffffffffffffffffffff168273ffffffffffffffffffffffffffffffffffffffff16149050919050565b8280546200029e9062000435565b90600052602060002090601f016020900481019282620002c257600085556200030e565b82601f10620002dd57805160ff19168380011785556200030e565b828001600101855582156200030e579182015b828111156200030d578251825591602001919060010190620002f0565b5b5090506200031d919062000321565b5090565b5b808211156200033c57600081600090555060010162000322565b5090565b600080fd5b600073ffffffffffffffffffffffffffffffffffffffff82169050919050565b6000620003728262000345565b9050919050565b620003848162000365565b81146200039057600080fd5b50565b600081519050620003a48162000379565b92915050565b600080600060608486031215620003c657620003c562000340565b5b6000620003d68682870162000393565b9350506020620003e98682870162000393565b9250506040620003fc8682870162000393565b9150509250925092565b7f4e487b7100000000000000000000000000000000000000000000000000000000600052602260045260246000fd5b600060028204905060018216806200044e57607f821691505b60208210810362000464576200046362000406565b5b50919050565b60805160a05160c0516124e7620004a160003960006115620152600061062a0152600081816103c0015261081c01526124e76000f3fe6080604052600436106100f75760003560e01c80637929d1b51161008a578063a5f21a9f11610059578063a5f21a9f14610316578063a80df8c01461033f578063ce1b815f1461036a578063de3689d314610395576100f8565b80637929d1b5146102645780638abc87dd146102a457806390effc83146102c05780639e65442c146102eb576100f8565b8063486ff0cd116100c6578063486ff0cd146101ba578063572b6c05146101e55780635bf8633a146102225780636a31d9921461024d576100f8565b80630b102d1a1461011257806312e855851461013b5780632528b676146101665780633979e09b14610191576100f8565b5b346004600082825461010a9190611b7a565b925050819055005b34801561011e57600080fd5b5061013960048036038101906101349190611c33565b6103be565b005b34801561014757600080fd5b506101506104a0565b60405161015d9190611c6f565b60405180910390f35b34801561017257600080fd5b5061017b6104af565b6040516101889190611dd9565b60405180910390f35b34801561019d57600080fd5b506101b860048036038101906101b39190611e27565b610628565b005b3480156101c657600080fd5b506101cf6106bf565b6040516101dc9190611f27565b60405180910390f35b3480156101f157600080fd5b5061020c60048036038101906102079190611c33565b61074d565b6040516102199190611f58565b60405180910390f35b34801561022e57600080fd5b506102376107a7565b6040516102449190611f82565b60405180910390f35b34801561025957600080fd5b506102626107cd565b005b34801561027057600080fd5b5061028b60048036038101906102869190611f9d565b610980565b60405161029b9493929190611fd9565b60405180910390f35b6102be60048036038101906102b99190611f9d565b6109dd565b005b3480156102cc57600080fd5b506102d5611061565b6040516102e29190611dd9565b60405180910390f35b3480156102f757600080fd5b506103006112df565b60405161030d9190611dd9565b60405180910390f35b34801561032257600080fd5b5061033d6004803603810190610338919061201e565b611560565b005b34801561034b57600080fd5b506103546115f4565b6040516103619190611c6f565b60405180910390f35b34801561037657600080fd5b5061037f6115ff565b60405161038c9190611f82565b60405180910390f35b3480156103a157600080fd5b506103bc60048036038101906103b79190612071565b611629565b005b7f000000000000000000000000000000000000000000000000000000000000000073ffffffffffffffffffffffffffffffffffffffff166103fd611a30565b73ffffffffffffffffffffffffffffffffffffffff161461045c57610420611a30565b6040517fbb324d940000000000000000000000000000000000000000000000000000000081526004016104539190611f82565b60405180910390fd5b80600560006101000a81548173ffffffffffffffffffffffffffffffffffffffff021916908373ffffffffffffffffffffffffffffffffffffffff16021790555050565b600066071afd498d0000905090565b60606000600560009054906101000a900473ffffffffffffffffffffffffffffffffffffffff1673ffffffffffffffffffffffffffffffffffffffff1663627f0c286040518163ffffffff1660e01b8152600401602060405180830381865afa158015610520573d6000803e3d6000fd5b505050506040513d601f19601f8201168201806040525081019061054491906120c6565b905060008167ffffffffffffffff811115610562576105616120f3565b5b60405190808252806020026020018201604052801561059b57816020015b610588611b01565b8152602001906001900390816105805790505b5090506000600190505b82811161061f576040518060800160405280828152602001600081526020016000151581526020016105d5611a30565b73ffffffffffffffffffffffffffffffffffffffff1681525082828151811061060157610600612122565b5b6020026020010181905250808061061790612151565b9150506105a5565b50809250505090565b7f000000000000000000000000000000000000000000000000000000000000000073ffffffffffffffffffffffffffffffffffffffff1663e16ca6c0858585856040518563ffffffff1660e01b81526004016106879493929190612199565b600060405180830381600087803b1580156106a157600080fd5b505af11580156106b5573d6000803e3d6000fd5b5050505050505050565b600680546106cc9061220d565b80601f01602080910402602001604051908101604052809291908181526020018280546106f89061220d565b80156107455780601f1061071a57610100808354040283529160200191610745565b820191906000526020600020905b81548152906001019060200180831161072857829003601f168201915b505050505081565b6000600160009054906101000a900473ffffffffffffffffffffffffffffffffffffffff1673ffffffffffffffffffffffffffffffffffffffff168273ffffffffffffffffffffffffffffffffffffffff16149050919050565b600560009054906101000a900473ffffffffffffffffffffffffffffffffffffffff1681565b600260005403610812576040517f08c379a00000000000000000000000000000000000000000000000000000000081526004016108099061228a565b60405180910390fd5b60026000819055507f000000000000000000000000000000000000000000000000000000000000000073ffffffffffffffffffffffffffffffffffffffff16610859611a30565b73ffffffffffffffffffffffffffffffffffffffff16146108b85761087c611a30565b6040517fbb324d940000000000000000000000000000000000000000000000000000000081526004016108af9190611f82565b60405180910390fd5b60006108c2611a30565b73ffffffffffffffffffffffffffffffffffffffff166004546040516108e7906122db565b60006040518083038185875af1925050503d8060008114610924576040519150601f19603f3d011682016040523d82523d6000602084013e610929565b606091505b505090508061096d576040517f08c379a00000000000000000000000000000000000000000000000000000000081526004016109649061233c565b60405180910390fd5b6000600481905550506001600081905550565b60036020528060005260406000206000915090508060000154908060010154908060020160009054906101000a900460ff16908060020160019054906101000a900473ffffffffffffffffffffffffffffffffffffffff16905084565b600260005403610a22576040517f08c379a0000000000000000000000000000000000000000000000000000000008152600401610a199061228a565b60405180910390fd5b600260008190555060008111610a6f57806040517f681f5615000000000000000000000000000000000000000000000000000000008152600401610a669190611c6f565b60405180910390fd5b600115156003600083815260200190815260200160002060020160009054906101000a900460ff16151514610adb57806040517f61e4bceb000000000000000000000000000000000000000000000000000000008152600401610ad29190611c6f565b60405180910390fd5b60036000828152602001908152602001600020600101543414610b3557346040517f45f11e18000000000000000000000000000000000000000000000000000000008152600401610b2c9190611c6f565b60405180910390fd5b600560009054906101000a900473ffffffffffffffffffffffffffffffffffffffff1673ffffffffffffffffffffffffffffffffffffffff16636352211e826040518263ffffffff1660e01b8152600401610b909190611c6f565b602060405180830381865afa158015610bad573d6000803e3d6000fd5b505050506040513d601f19601f82011682018060405250810190610bd19190612371565b73ffffffffffffffffffffffffffffffffffffffff16610bef611a30565b73ffffffffffffffffffffffffffffffffffffffff1603610c5057610c12611a30565b816040517fbb4cd47d000000000000000000000000000000000000000000000000000000008152600401610c4792919061239e565b60405180910390fd5b6003600082815260200190815260200160002060020160019054906101000a900473ffffffffffffffffffffffffffffffffffffffff1673ffffffffffffffffffffffffffffffffffffffff16610ca5611a30565b73ffffffffffffffffffffffffffffffffffffffff1603610d0657610cc8611a30565b816040517fbb4cd47d000000000000000000000000000000000000000000000000000000008152600401610cfd92919061239e565b60405180910390fd5b600560009054906101000a900473ffffffffffffffffffffffffffffffffffffffff1673ffffffffffffffffffffffffffffffffffffffff166323b872dd30610d4d611a30565b846040518463ffffffff1660e01b8152600401610d6c939291906123c7565b600060405180830381600087803b158015610d8657600080fd5b505af1158015610d9a573d6000803e3d6000fd5b505050506003600082815260200190815260200160002060020160019054906101000a900473ffffffffffffffffffffffffffffffffffffffff1673ffffffffffffffffffffffffffffffffffffffff166108fc349081150290604051600060405180830381858888f19350505050158015610e1a573d6000803e3d6000fd5b506003600082815260200190815260200160002060008082016000905560018201600090556002820160006101000a81549060ff02191690556002820160016101000a81549073ffffffffffffffffffffffffffffffffffffffff02191690555050600560009054906101000a900473ffffffffffffffffffffffffffffffffffffffff1673ffffffffffffffffffffffffffffffffffffffff16636352211e826040518263ffffffff1660e01b8152600401610ed79190611c6f565b602060405180830381865afa158015610ef4573d6000803e3d6000fd5b505050506040513d601f19601f82011682018060405250810190610f189190612371565b73ffffffffffffffffffffffffffffffffffffffff16600560009054906101000a900473ffffffffffffffffffffffffffffffffffffffff1673ffffffffffffffffffffffffffffffffffffffff167f83d58fac7b45f66283ebfd19232b0f3cbe6e170a64ea3630147d8e8087fcb0fa8360036000868152602001908152602001600020600101546000600560009054906101000a900473ffffffffffffffffffffffffffffffffffffffff1673ffffffffffffffffffffffffffffffffffffffff16636352211e886040518263ffffffff1660e01b8152600401610ffd9190611c6f565b602060405180830381865afa15801561101a573d6000803e3d6000fd5b505050506040513d601f19601f8201168201806040525081019061103e9190612371565b60405161104e94939291906123fe565b60405180910390a3600160008190555050565b60606000600560009054906101000a900473ffffffffffffffffffffffffffffffffffffffff1673ffffffffffffffffffffffffffffffffffffffff1663627f0c286040518163ffffffff1660e01b8152600401602060405180830381865afa1580156110d2573d6000803e3d6000fd5b505050506040513d601f19601f820116820180604052508101906110f691906120c6565b9050600080600190505b82811161115957600115156003600083815260200190815260200160002060020160009054906101000a900460ff16151503611146576001826111439190611b7a565b91505b808061115190612151565b915050611100565b5060008167ffffffffffffffff811115611176576111756120f3565b5b6040519080825280602002602001820160405280156111af57816020015b61119c611b01565b8152602001906001900390816111945790505b509050600080600190505b8481116112d457600115156003600083815260200190815260200160002060020160009054906101000a900460ff161515036112c1576003600082815260200190815260200160002060405180608001604052908160008201548152602001600182015481526020016002820160009054906101000a900460ff161515151581526020016002820160019054906101000a900473ffffffffffffffffffffffffffffffffffffffff1673ffffffffffffffffffffffffffffffffffffffff1673ffffffffffffffffffffffffffffffffffffffff16815250508383815181106112a6576112a5612122565b5b60200260200101819052506001826112be9190611b7a565b91505b80806112cc90612151565b9150506111ba565b508194505050505090565b60606000600560009054906101000a900473ffffffffffffffffffffffffffffffffffffffff1673ffffffffffffffffffffffffffffffffffffffff166370a08231611329611a30565b6040518263ffffffff1660e01b81526004016113459190611f82565b602060405180830381865afa158015611362573d6000803e3d6000fd5b505050506040513d601f19601f8201168201806040525081019061138691906120c6565b905061139181611a3f565b6000808267ffffffffffffffff8111156113ae576113ad6120f3565b5b6040519080825280602002602001820160405280156113e757816020015b6113d4611b01565b8152602001906001900390816113cc5790505b5090506000600190505b83831015611556576000600560009054906101000a900473ffffffffffffffffffffffffffffffffffffffff1673ffffffffffffffffffffffffffffffffffffffff16636352211e836040518263ffffffff1660e01b81526004016114569190611c6f565b602060405180830381865afa158015611473573d6000803e3d6000fd5b505050506040513d601f19601f820116820180604052508101906114979190612371565b90506114a1611a30565b73ffffffffffffffffffffffffffffffffffffffff168173ffffffffffffffffffffffffffffffffffffffff1603611542576040518060800160405280838152602001600081526020016000151581526020016114fc611a30565b73ffffffffffffffffffffffffffffffffffffffff1681525083858151811061152857611527612122565b5b6020026020010181905250838061153e90612151565b9450505b50808061154e90612151565b9150506113f1565b5080935050505090565b7f000000000000000000000000000000000000000000000000000000000000000073ffffffffffffffffffffffffffffffffffffffff16639762bb0d8484846040518463ffffffff1660e01b81526004016115bd93929190612443565b600060405180830381600087803b1580156115d757600080fd5b505af11580156115eb573d6000803e3d6000fd5b50505050505050565b66071afd498d000081565b6000600160009054906101000a900473ffffffffffffffffffffffffffffffffffffffff16905090565b6000811161167757611639611a30565b816040517fab30c82900000000000000000000000000000000000000000000000000000000815260040161166e92919061239e565b60405180910390fd5b600115156003600084815260200190815260200160002060020160009054906101000a900460ff161515036116e357816040517f8d4ee15a0000000000000000000000000000000000000000000000000000000081526004016116da9190611c6f565b60405180910390fd5b6116eb611a30565b73ffffffffffffffffffffffffffffffffffffffff16600560009054906101000a900473ffffffffffffffffffffffffffffffffffffffff1673ffffffffffffffffffffffffffffffffffffffff16636352211e846040518263ffffffff1660e01b815260040161175c9190611c6f565b602060405180830381865afa158015611779573d6000803e3d6000fd5b505050506040513d601f19601f8201168201806040525081019061179d9190612371565b73ffffffffffffffffffffffffffffffffffffffff16146117fe576117c0611a30565b826040517f814d13790000000000000000000000000000000000000000000000000000000081526004016117f592919061239e565b60405180910390fd5b600560009054906101000a900473ffffffffffffffffffffffffffffffffffffffff1673ffffffffffffffffffffffffffffffffffffffff166323b872dd611844611a30565b30856040518463ffffffff1660e01b8152600401611864939291906123c7565b600060405180830381600087803b15801561187e57600080fd5b505af1158015611892573d6000803e3d6000fd5b5050505060405180608001604052808381526020018281526020016001151581526020016118be611a30565b73ffffffffffffffffffffffffffffffffffffffff1681525060036000848152602001908152602001600020600082015181600001556020820151816001015560408201518160020160006101000a81548160ff02191690831515021790555060608201518160020160016101000a81548173ffffffffffffffffffffffffffffffffffffffff021916908373ffffffffffffffffffffffffffffffffffffffff1602179055509050503373ffffffffffffffffffffffffffffffffffffffff1682600560009054906101000a900473ffffffffffffffffffffffffffffffffffffffff1673ffffffffffffffffffffffffffffffffffffffff167f6732a7370fa1194f1d066277bb24c5dcaad07a9a901cbec919f4dfe477d9954c846001336040516119ed9392919061247a565b60405180910390a45050565b60006014600036905010158015611a155750611a143361074d565b5b15611a2957601436033560601c9050611a2d565b3390505b90565b6000611a3a6119f9565b905090565b611ad581604051602401611a539190611c6f565b6040516020818303038152906040527ff5b1bba9000000000000000000000000000000000000000000000000000000007bffffffffffffffffffffffffffffffffffffffffffffffffffffffff19166020820180517bffffffffffffffffffffffffffffffffffffffffffffffffffffffff8381831617835250505050611ad8565b50565b60008151905060006a636f6e736f6c652e6c6f679050602083016000808483855afa5050505050565b60405180608001604052806000815260200160008152602001600015158152602001600073ffffffffffffffffffffffffffffffffffffffff1681525090565b6000819050919050565b7f4e487b7100000000000000000000000000000000000000000000000000000000600052601160045260246000fd5b6000611b8582611b41565b9150611b9083611b41565b9250827fffffffffffffffffffffffffffffffffffffffffffffffffffffffffffffffff03821115611bc557611bc4611b4b565b5b828201905092915050565b600080fd5b600073ffffffffffffffffffffffffffffffffffffffff82169050919050565b6000611c0082611bd5565b9050919050565b611c1081611bf5565b8114611c1b57600080fd5b50565b600081359050611c2d81611c07565b92915050565b600060208284031215611c4957611c48611bd0565b5b6000611c5784828501611c1e565b91505092915050565b611c6981611b41565b82525050565b6000602082019050611c846000830184611c60565b92915050565b600081519050919050565b600082825260208201905092915050565b6000819050602082019050919050565b611cbf81611b41565b82525050565b60008115159050919050565b611cda81611cc5565b82525050565b6000611ceb82611bd5565b9050919050565b611cfb81611ce0565b82525050565b608082016000820151611d176000850182611cb6565b506020820151611d2a6020850182611cb6565b506040820151611d3d6040850182611cd1565b506060820151611d506060850182611cf2565b50505050565b6000611d628383611d01565b60808301905092915050565b6000602082019050919050565b6000611d8682611c8a565b611d908185611c95565b9350611d9b83611ca6565b8060005b83811015611dcc578151611db38882611d56565b9750611dbe83611d6e565b925050600181019050611d9f565b5085935050505092915050565b60006020820190508181036000830152611df38184611d7b565b905092915050565b611e0481611b41565b8114611e0f57600080fd5b50565b600081359050611e2181611dfb565b92915050565b60008060008060808587031215611e4157611e40611bd0565b5b6000611e4f87828801611e12565b9450506020611e6087828801611e12565b9350506040611e7187828801611c1e565b9250506060611e8287828801611e12565b91505092959194509250565b600081519050919050565b600082825260208201905092915050565b60005b83811015611ec8578082015181840152602081019050611ead565b83811115611ed7576000848401525b50505050565b6000601f19601f8301169050919050565b6000611ef982611e8e565b611f038185611e99565b9350611f13818560208601611eaa565b611f1c81611edd565b840191505092915050565b60006020820190508181036000830152611f418184611eee565b905092915050565b611f5281611cc5565b82525050565b6000602082019050611f6d6000830184611f49565b92915050565b611f7c81611bf5565b82525050565b6000602082019050611f976000830184611f73565b92915050565b600060208284031215611fb357611fb2611bd0565b5b6000611fc184828501611e12565b91505092915050565b611fd381611ce0565b82525050565b6000608082019050611fee6000830187611c60565b611ffb6020830186611c60565b6120086040830185611f49565b6120156060830184611fca565b95945050505050565b60008060006060848603121561203757612036611bd0565b5b600061204586828701611c1e565b935050602061205686828701611e12565b925050604061206786828701611e12565b9150509250925092565b6000806040838503121561208857612087611bd0565b5b600061209685828601611e12565b92505060206120a785828601611e12565b9150509250929050565b6000815190506120c081611dfb565b92915050565b6000602082840312156120dc576120db611bd0565b5b60006120ea848285016120b1565b91505092915050565b7f4e487b7100000000000000000000000000000000000000000000000000000000600052604160045260246000fd5b7f4e487b7100000000000000000000000000000000000000000000000000000000600052603260045260246000fd5b600061215c82611b41565b91507fffffffffffffffffffffffffffffffffffffffffffffffffffffffffffffffff820361218e5761218d611b4b565b5b600182019050919050565b60006080820190506121ae6000830187611c60565b6121bb6020830186611c60565b6121c86040830185611f73565b6121d56060830184611c60565b95945050505050565b7f4e487b7100000000000000000000000000000000000000000000000000000000600052602260045260246000fd5b6000600282049050600182168061222557607f821691505b602082108103612238576122376121de565b5b50919050565b7f5265656e7472616e637947756172643a207265656e7472616e742063616c6c00600082015250565b6000612274601f83611e99565b915061227f8261223e565b602082019050919050565b600060208201905081810360008301526122a381612267565b9050919050565b600081905092915050565b50565b60006122c56000836122aa565b91506122d0826122b5565b600082019050919050565b60006122e6826122b8565b9150819050919050565b7f5061796d656e74207761736e2774207375636365737366756c6c000000000000600082015250565b6000612326601a83611e99565b9150612331826122f0565b602082019050919050565b6000602082019050818103600083015261235581612319565b9050919050565b60008151905061236b81611c07565b92915050565b60006020828403121561238757612386611bd0565b5b60006123958482850161235c565b91505092915050565b60006040820190506123b36000830185611f73565b6123c06020830184611c60565b9392505050565b60006060820190506123dc6000830186611f73565b6123e96020830185611f73565b6123f66040830184611c60565b949350505050565b60006080820190506124136000830187611c60565b6124206020830186611c60565b61242d6040830185611f49565b61243a6060830184611f73565b95945050505050565b60006060820190506124586000830186611f73565b6124656020830185611c60565b6124726040830184611c60565b949350505050565b600060608201905061248f6000830186611c60565b61249c6020830185611f49565b6124a96040830184611f73565b94935050505056fea26469706673582212204dfe39a06a66f0956993559574a6646ba7fb263107612477a0e6a61c2e28a8d764736f6c634300080d0033",
  "linkReferences": {},
  "deployedLinkReferences": {}
}