{
  "_format": "hh-sol-artifact-1",
  "contractName": "NftMarketPlaceV2",
  "sourceName": "contracts/NftMarketplaceV2.sol",
  "abi": [
    {
      "inputs": [
        {
          "internalType": "address",
          "name": "_DutchAuctionFactory",
          "type": "address"
        },
        {
          "internalType": "address",
          "name": "_EngFactoryContract",
          "type": "address"
        },
        {
          "internalType": "address",
          "name": "forwarder",
          "type": "address"
        }
      ],
      "stateMutability": "nonpayable",
      "type": "constructor"
    },
    {
      "inputs": [
        {
          "internalType": "address",
          "name": "caller",
          "type": "address"
        },
        {
          "internalType": "uint256",
          "name": "tokenId",
          "type": "uint256"
        }
      ],
      "name": "NftMarketPlace__CallerIsOwnerOfToken",
      "type": "error"
    },
    {
      "inputs": [
        {
          "internalType": "address",
          "name": "requester",
          "type": "address"
        }
      ],
      "name": "NftMarketPlace__NotOwnerOfContract",
      "type": "error"
    },
    {
      "inputs": [
        {
          "internalType": "address",
          "name": "sender",
          "type": "address"
        },
        {
          "internalType": "uint256",
          "name": "tokenId",
          "type": "uint256"
        }
      ],
      "name": "NftMarketPlace__NotOwnerOfToken",
      "type": "error"
    },
    {
      "inputs": [
        {
          "internalType": "uint256",
          "name": "tokenId",
          "type": "uint256"
        }
      ],
      "name": "NftMarketPlace__TokenAlreadyOnSale",
      "type": "error"
    },
    {
      "inputs": [
        {
          "internalType": "uint256",
          "name": "tokenId",
          "type": "uint256"
        }
      ],
      "name": "NftMarketPlace__TokenIdUnderOne",
      "type": "error"
    },
    {
      "inputs": [
        {
          "internalType": "uint256",
          "name": "tokenId",
          "type": "uint256"
        }
      ],
      "name": "NftMarketPlace__TokenNotOnSale",
      "type": "error"
    },
    {
      "inputs": [
        {
          "internalType": "uint256",
          "name": "valueSend",
          "type": "uint256"
        }
      ],
      "name": "NftMarketPlace__UnequalToSellPrice",
      "type": "error"
    },
    {
      "inputs": [
        {
          "internalType": "address",
          "name": "sender",
          "type": "address"
        },
        {
          "internalType": "uint256",
          "name": "valueSend",
          "type": "uint256"
        }
      ],
      "name": "NftMarketPlace__invalidSellPrice",
      "type": "error"
    },
    {
      "anonymous": false,
      "inputs": [
        {
          "indexed": true,
          "internalType": "address",
          "name": "nftContractAddress",
          "type": "address"
        },
        {
          "indexed": false,
          "internalType": "uint256",
          "name": "tokenId",
          "type": "uint256"
        },
        {
          "indexed": false,
          "internalType": "uint256",
          "name": "price",
          "type": "uint256"
        },
        {
          "indexed": false,
          "internalType": "bool",
          "name": "onSale",
          "type": "bool"
        },
        {
          "indexed": false,
          "internalType": "address",
          "name": "owner",
          "type": "address"
        },
        {
          "indexed": true,
          "internalType": "address",
          "name": "seller",
          "type": "address"
        },
        {
          "indexed": false,
          "internalType": "address",
          "name": "minter",
          "type": "address"
        }
      ],
      "name": "marketItemBought",
      "type": "event"
    },
    {
      "anonymous": false,
      "inputs": [
        {
          "indexed": true,
          "internalType": "address",
          "name": "nftContractAddress",
          "type": "address"
        },
        {
          "indexed": false,
          "internalType": "uint256",
          "name": "tokenId",
          "type": "uint256"
        },
        {
          "indexed": false,
          "internalType": "uint256",
          "name": "price",
          "type": "uint256"
        },
        {
          "indexed": false,
          "internalType": "bool",
          "name": "onSale",
          "type": "bool"
        },
        {
          "indexed": false,
          "internalType": "address",
          "name": "owner",
          "type": "address"
        },
        {
          "indexed": true,
          "internalType": "address",
          "name": "seller",
          "type": "address"
        },
        {
          "indexed": false,
          "internalType": "address",
          "name": "minter",
          "type": "address"
        }
      ],
      "name": "marketItemOnSale",
      "type": "event"
    },
    {
      "stateMutability": "payable",
      "type": "fallback"
    },
    {
      "inputs": [],
      "name": "LISTINGPRICE",
      "outputs": [
        {
          "internalType": "uint256",
          "name": "",
          "type": "uint256"
        }
      ],
      "stateMutability": "view",
      "type": "function"
    },
    {
      "inputs": [
        {
          "internalType": "uint256",
          "name": "_startingPrice",
          "type": "uint256"
        },
        {
          "internalType": "uint256",
          "name": "_discountRate",
          "type": "uint256"
        },
        {
          "internalType": "address",
          "name": "_nft",
          "type": "address"
        },
        {
          "internalType": "uint256",
          "name": "_nftId",
          "type": "uint256"
        }
      ],
      "name": "McreateDutchAuction",
      "outputs": [],
      "stateMutability": "nonpayable",
      "type": "function"
    },
    {
      "inputs": [
        {
          "internalType": "address",
          "name": "_nft",
          "type": "address"
        },
        {
          "internalType": "uint256",
          "name": "_nftId",
          "type": "uint256"
        },
        {
          "internalType": "uint256",
          "name": "_startingBid",
          "type": "uint256"
        }
      ],
      "name": "McreateEngAuction",
      "outputs": [],
      "stateMutability": "nonpayable",
      "type": "function"
    },
    {
      "inputs": [
        {
          "internalType": "uint256",
          "name": "_tokenId",
          "type": "uint256"
        }
      ],
      "name": "buyMarketToken",
      "outputs": [],
      "stateMutability": "payable",
      "type": "function"
    },
    {
      "inputs": [],
      "name": "fetchAllMyTokens",
      "outputs": [
        {
          "components": [
            {
              "internalType": "uint256",
              "name": "tokenId",
              "type": "uint256"
            },
            {
              "internalType": "uint256",
              "name": "price",
              "type": "uint256"
            },
            {
              "internalType": "bool",
              "name": "onSale",
              "type": "bool"
            },
            {
              "internalType": "address payable",
              "name": "seller",
              "type": "address"
            }
          ],
          "internalType": "struct NftMarketPlaceV2.MarketToken[]",
          "name": "",
          "type": "tuple[]"
        }
      ],
      "stateMutability": "view",
      "type": "function"
    },
    {
      "inputs": [],
      "name": "fetchAllTokens",
      "outputs": [
        {
          "components": [
            {
              "internalType": "uint256",
              "name": "tokenId",
              "type": "uint256"
            },
            {
              "internalType": "uint256",
              "name": "price",
              "type": "uint256"
            },
            {
              "internalType": "bool",
              "name": "onSale",
              "type": "bool"
            },
            {
              "internalType": "address payable",
              "name": "seller",
              "type": "address"
            }
          ],
          "internalType": "struct NftMarketPlaceV2.MarketToken[]",
          "name": "",
          "type": "tuple[]"
        }
      ],
      "stateMutability": "view",
      "type": "function"
    },
    {
      "inputs": [],
      "name": "fetchAllTokensOnSale",
      "outputs": [
        {
          "components": [
            {
              "internalType": "uint256",
              "name": "tokenId",
              "type": "uint256"
            },
            {
              "internalType": "uint256",
              "name": "price",
              "type": "uint256"
            },
            {
              "internalType": "bool",
              "name": "onSale",
              "type": "bool"
            },
            {
              "internalType": "address payable",
              "name": "seller",
              "type": "address"
            }
          ],
          "internalType": "struct NftMarketPlaceV2.MarketToken[]",
          "name": "",
          "type": "tuple[]"
        }
      ],
      "stateMutability": "view",
      "type": "function"
    },
    {
      "inputs": [],
      "name": "getListingPrice",
      "outputs": [
        {
          "internalType": "uint256",
          "name": "",
          "type": "uint256"
        }
      ],
      "stateMutability": "pure",
      "type": "function"
    },
    {
      "inputs": [],
      "name": "getTrustedForwarder",
      "outputs": [
        {
          "internalType": "address",
          "name": "forwarder",
          "type": "address"
        }
      ],
      "stateMutability": "view",
      "type": "function"
    },
    {
      "inputs": [
        {
          "internalType": "uint256",
          "name": "",
          "type": "uint256"
        }
      ],
      "name": "idToMarketToken",
      "outputs": [
        {
          "internalType": "uint256",
          "name": "tokenId",
          "type": "uint256"
        },
        {
          "internalType": "uint256",
          "name": "price",
          "type": "uint256"
        },
        {
          "internalType": "bool",
          "name": "onSale",
          "type": "bool"
        },
        {
          "internalType": "address payable",
          "name": "seller",
          "type": "address"
        }
      ],
      "stateMutability": "view",
      "type": "function"
    },
    {
      "inputs": [
        {
          "internalType": "address",
          "name": "forwarder",
          "type": "address"
        }
      ],
      "name": "isTrustedForwarder",
      "outputs": [
        {
          "internalType": "bool",
          "name": "",
          "type": "bool"
        }
      ],
      "stateMutability": "view",
      "type": "function"
    },
    {
      "inputs": [
        {
          "internalType": "uint256",
          "name": "_tokenId",
          "type": "uint256"
        },
        {
          "internalType": "uint256",
          "name": "sellPrice",
          "type": "uint256"
        }
      ],
      "name": "sellMarketToken",
      "outputs": [],
      "stateMutability": "nonpayable",
      "type": "function"
    },
    {
      "inputs": [
        {
          "internalType": "address",
          "name": "_nftAddress",
          "type": "address"
        }
      ],
      "name": "setNftAddress",
      "outputs": [],
      "stateMutability": "nonpayable",
      "type": "function"
    },
    {
      "inputs": [],
      "name": "versionRecipient",
      "outputs": [
        {
          "internalType": "string",
          "name": "",
          "type": "string"
        }
      ],
      "stateMutability": "view",
      "type": "function"
    },
    {
      "inputs": [],
      "name": "withdrawContractsProfits",
      "outputs": [],
      "stateMutability": "nonpayable",
      "type": "function"
    }
  ],
  "bytecode": "0x60e060405273c14ac1ac78c2437c4e9a2b4caa708bb197b775c6600560006101000a81548173ffffffffffffffffffffffffffffffffffffffff021916908373ffffffffffffffffffffffffffffffffffffffff1602179055506040518060400160405280600681526020017f76302e302e31000000000000000000000000000000000000000000000000000081525060069080519060200190620000a6929190620002a3565b50348015620000b457600080fd5b506040516200265c3803806200265c8339818101604052810190620000da9190620003bd565b6001600081905550620000f2620001a760201b60201c565b73ffffffffffffffffffffffffffffffffffffffff1660808173ffffffffffffffffffffffffffffffffffffffff16815250508273ffffffffffffffffffffffffffffffffffffffff1660a08173ffffffffffffffffffffffffffffffffffffffff16815250508173ffffffffffffffffffffffffffffffffffffffff1660c08173ffffffffffffffffffffffffffffffffffffffff16815250506200019e81620001c360201b60201c565b5050506200047d565b6000620001be6200020760201b620017361760201c565b905090565b80600160006101000a81548173ffffffffffffffffffffffffffffffffffffffff021916908373ffffffffffffffffffffffffffffffffffffffff16021790555050565b600060146000369050101580156200022c57506200022b336200024960201b60201c565b5b156200024257601436033560601c905062000246565b3390505b90565b6000600160009054906101000a900473ffffffffffffffffffffffffffffffffffffffff1673ffffffffffffffffffffffffffffffffffffffff168273ffffffffffffffffffffffffffffffffffffffff16149050919050565b828054620002b19062000448565b90600052602060002090601f016020900481019282620002d5576000855562000321565b82601f10620002f057805160ff191683800117855562000321565b8280016001018555821562000321579182015b828111156200032057825182559160200191906001019062000303565b5b50905062000330919062000334565b5090565b5b808211156200034f57600081600090555060010162000335565b5090565b600080fd5b600073ffffffffffffffffffffffffffffffffffffffff82169050919050565b6000620003858262000358565b9050919050565b620003978162000378565b8114620003a357600080fd5b50565b600081519050620003b7816200038c565b92915050565b600080600060608486031215620003d957620003d862000353565b5b6000620003e986828701620003a6565b9350506020620003fc86828701620003a6565b92505060406200040f86828701620003a6565b9150509250925092565b7f4e487b7100000000000000000000000000000000000000000000000000000000600052602260045260246000fd5b600060028204905060018216806200046157607f821691505b60208210810362000477576200047662000419565b5b50919050565b60805160a05160c0516121a8620004b4600039600061132c015260006105f401526000818161038a01526107c001526121a86000f3fe6080604052600436106100ec5760003560e01c80637929d1b51161008a578063a5f21a9f11610059578063a5f21a9f146102e0578063a80df8c014610309578063ce1b815f14610334578063de3689d31461035f576100ed565b80637929d1b51461022e5780638abc87dd1461026e57806390effc831461028a5780639e65442c146102b5576100ed565b80633979e09b116100c65780633979e09b14610186578063486ff0cd146101af578063572b6c05146101da5780636a31d99214610217576100ed565b80630b102d1a1461010757806312e85585146101305780632528b6761461015b576100ed565b5b34600460008282546100ff91906118b7565b925050819055005b34801561011357600080fd5b5061012e60048036038101906101299190611970565b610388565b005b34801561013c57600080fd5b5061014561046a565b60405161015291906119ac565b60405180910390f35b34801561016757600080fd5b50610170610479565b60405161017d9190611b16565b60405180910390f35b34801561019257600080fd5b506101ad60048036038101906101a89190611b64565b6105f2565b005b3480156101bb57600080fd5b506101c4610689565b6040516101d19190611c64565b60405180910390f35b3480156101e657600080fd5b5061020160048036038101906101fc9190611970565b610717565b60405161020e9190611c95565b60405180910390f35b34801561022357600080fd5b5061022c610771565b005b34801561023a57600080fd5b5061025560048036038101906102509190611cb0565b610924565b6040516102659493929190611cec565b60405180910390f35b61028860048036038101906102839190611cb0565b610981565b005b34801561029657600080fd5b5061029f610e2b565b6040516102ac9190611b16565b60405180910390f35b3480156102c157600080fd5b506102ca6110a9565b6040516102d79190611b16565b60405180910390f35b3480156102ec57600080fd5b5061030760048036038101906103029190611d31565b61132a565b005b34801561031557600080fd5b5061031e6113be565b60405161032b91906119ac565b60405180910390f35b34801561034057600080fd5b506103496113c9565b6040516103569190611d93565b60405180910390f35b34801561036b57600080fd5b5061038660048036038101906103819190611dae565b6113f3565b005b7f000000000000000000000000000000000000000000000000000000000000000073ffffffffffffffffffffffffffffffffffffffff166103c761176d565b73ffffffffffffffffffffffffffffffffffffffff1614610426576103ea61176d565b6040517fbb324d9400000000000000000000000000000000000000000000000000000000815260040161041d9190611d93565b60405180910390fd5b80600560006101000a81548173ffffffffffffffffffffffffffffffffffffffff021916908373ffffffffffffffffffffffffffffffffffffffff16021790555050565b600066071afd498d0000905090565b60606000600560009054906101000a900473ffffffffffffffffffffffffffffffffffffffff1673ffffffffffffffffffffffffffffffffffffffff1663627f0c286040518163ffffffff1660e01b8152600401602060405180830381865afa1580156104ea573d6000803e3d6000fd5b505050506040513d601f19601f8201168201806040525081019061050e9190611e03565b905060008167ffffffffffffffff81111561052c5761052b611e30565b5b60405190808252806020026020018201604052801561056557816020015b61055261183e565b81526020019060019003908161054a5790505b5090506000600190505b8281116105e95760405180608001604052808281526020016000815260200160001515815260200161059f61176d565b73ffffffffffffffffffffffffffffffffffffffff168152508282815181106105cb576105ca611e5f565b5b602002602001018190525080806105e190611e8e565b91505061056f565b50809250505090565b7f000000000000000000000000000000000000000000000000000000000000000073ffffffffffffffffffffffffffffffffffffffff1663e16ca6c0858585856040518563ffffffff1660e01b81526004016106519493929190611ed6565b600060405180830381600087803b15801561066b57600080fd5b505af115801561067f573d6000803e3d6000fd5b5050505050505050565b6006805461069690611f4a565b80601f01602080910402602001604051908101604052809291908181526020018280546106c290611f4a565b801561070f5780601f106106e45761010080835404028352916020019161070f565b820191906000526020600020905b8154815290600101906020018083116106f257829003601f168201915b505050505081565b6000600160009054906101000a900473ffffffffffffffffffffffffffffffffffffffff1673ffffffffffffffffffffffffffffffffffffffff168273ffffffffffffffffffffffffffffffffffffffff16149050919050565b6002600054036107b6576040517f08c379a00000000000000000000000000000000000000000000000000000000081526004016107ad90611fc7565b60405180910390fd5b60026000819055507f000000000000000000000000000000000000000000000000000000000000000073ffffffffffffffffffffffffffffffffffffffff166107fd61176d565b73ffffffffffffffffffffffffffffffffffffffff161461085c5761082061176d565b6040517fbb324d940000000000000000000000000000000000000000000000000000000081526004016108539190611d93565b60405180910390fd5b600061086661176d565b73ffffffffffffffffffffffffffffffffffffffff1660045460405161088b90612018565b60006040518083038185875af1925050503d80600081146108c8576040519150601f19603f3d011682016040523d82523d6000602084013e6108cd565b606091505b5050905080610911576040517f08c379a000000000000000000000000000000000000000000000000000000000815260040161090890612079565b60405180910390fd5b6000600481905550506001600081905550565b60036020528060005260406000206000915090508060000154908060010154908060020160009054906101000a900460ff16908060020160019054906101000a900473ffffffffffffffffffffffffffffffffffffffff16905084565b6002600054036109c6576040517f08c379a00000000000000000000000000000000000000000000000000000000081526004016109bd90611fc7565b60405180910390fd5b600260008190555060008111610a1357806040517f681f5615000000000000000000000000000000000000000000000000000000008152600401610a0a91906119ac565b60405180910390fd5b600115156003600083815260200190815260200160002060020160009054906101000a900460ff16151514610a7f57806040517f61e4bceb000000000000000000000000000000000000000000000000000000008152600401610a7691906119ac565b60405180910390fd5b60036000828152602001908152602001600020600101543414610ad957346040517f45f11e18000000000000000000000000000000000000000000000000000000008152600401610ad091906119ac565b60405180910390fd5b600560009054906101000a900473ffffffffffffffffffffffffffffffffffffffff1673ffffffffffffffffffffffffffffffffffffffff16636352211e826040518263ffffffff1660e01b8152600401610b3491906119ac565b602060405180830381865afa158015610b51573d6000803e3d6000fd5b505050506040513d601f19601f82011682018060405250810190610b7591906120ae565b73ffffffffffffffffffffffffffffffffffffffff16610b9361176d565b73ffffffffffffffffffffffffffffffffffffffff1603610bf457610bb661176d565b816040517fbb4cd47d000000000000000000000000000000000000000000000000000000008152600401610beb9291906120db565b60405180910390fd5b6003600082815260200190815260200160002060020160019054906101000a900473ffffffffffffffffffffffffffffffffffffffff1673ffffffffffffffffffffffffffffffffffffffff16610c4961176d565b73ffffffffffffffffffffffffffffffffffffffff1603610caa57610c6c61176d565b816040517fbb4cd47d000000000000000000000000000000000000000000000000000000008152600401610ca19291906120db565b60405180910390fd5b600560009054906101000a900473ffffffffffffffffffffffffffffffffffffffff1673ffffffffffffffffffffffffffffffffffffffff166323b872dd30610cf161176d565b846040518463ffffffff1660e01b8152600401610d1093929190612104565b600060405180830381600087803b158015610d2a57600080fd5b505af1158015610d3e573d6000803e3d6000fd5b505050506003600082815260200190815260200160002060020160019054906101000a900473ffffffffffffffffffffffffffffffffffffffff1673ffffffffffffffffffffffffffffffffffffffff166108fc349081150290604051600060405180830381858888f19350505050158015610dbe573d6000803e3d6000fd5b506003600082815260200190815260200160002060008082016000905560018201600090556002820160006101000a81549060ff02191690556002820160016101000a81549073ffffffffffffffffffffffffffffffffffffffff02191690555050600160008190555050565b60606000600560009054906101000a900473ffffffffffffffffffffffffffffffffffffffff1673ffffffffffffffffffffffffffffffffffffffff1663627f0c286040518163ffffffff1660e01b8152600401602060405180830381865afa158015610e9c573d6000803e3d6000fd5b505050506040513d601f19601f82011682018060405250810190610ec09190611e03565b9050600080600190505b828111610f2357600115156003600083815260200190815260200160002060020160009054906101000a900460ff16151503610f1057600182610f0d91906118b7565b91505b8080610f1b90611e8e565b915050610eca565b5060008167ffffffffffffffff811115610f4057610f3f611e30565b5b604051908082528060200260200182016040528015610f7957816020015b610f6661183e565b815260200190600190039081610f5e5790505b509050600080600190505b84811161109e57600115156003600083815260200190815260200160002060020160009054906101000a900460ff1615150361108b576003600082815260200190815260200160002060405180608001604052908160008201548152602001600182015481526020016002820160009054906101000a900460ff161515151581526020016002820160019054906101000a900473ffffffffffffffffffffffffffffffffffffffff1673ffffffffffffffffffffffffffffffffffffffff1673ffffffffffffffffffffffffffffffffffffffff16815250508383815181106110705761106f611e5f565b5b602002602001018190525060018261108891906118b7565b91505b808061109690611e8e565b915050610f84565b508194505050505090565b60606000600560009054906101000a900473ffffffffffffffffffffffffffffffffffffffff1673ffffffffffffffffffffffffffffffffffffffff166370a082316110f361176d565b6040518263ffffffff1660e01b815260040161110f9190611d93565b602060405180830381865afa15801561112c573d6000803e3d6000fd5b505050506040513d601f19601f820116820180604052508101906111509190611e03565b905061115b8161177c565b6000808267ffffffffffffffff81111561117857611177611e30565b5b6040519080825280602002602001820160405280156111b157816020015b61119e61183e565b8152602001906001900390816111965790505b5090506000600190505b83831015611320576000600560009054906101000a900473ffffffffffffffffffffffffffffffffffffffff1673ffffffffffffffffffffffffffffffffffffffff16636352211e836040518263ffffffff1660e01b815260040161122091906119ac565b602060405180830381865afa15801561123d573d6000803e3d6000fd5b505050506040513d601f19601f8201168201806040525081019061126191906120ae565b905061126b61176d565b73ffffffffffffffffffffffffffffffffffffffff168173ffffffffffffffffffffffffffffffffffffffff160361130c576040518060800160405280838152602001600081526020016000151581526020016112c661176d565b73ffffffffffffffffffffffffffffffffffffffff168152508385815181106112f2576112f1611e5f565b5b6020026020010181905250838061130890611e8e565b9450505b50808061131890611e8e565b9150506111bb565b5080935050505090565b7f000000000000000000000000000000000000000000000000000000000000000073ffffffffffffffffffffffffffffffffffffffff16639762bb0d8484846040518463ffffffff1660e01b81526004016113879392919061213b565b600060405180830381600087803b1580156113a157600080fd5b505af11580156113b5573d6000803e3d6000fd5b50505050505050565b66071afd498d000081565b6000600160009054906101000a900473ffffffffffffffffffffffffffffffffffffffff16905090565b600081116114415761140361176d565b816040517fab30c8290000000000000000000000000000000000000000000000000000000081526004016114389291906120db565b60405180910390fd5b600115156003600084815260200190815260200160002060020160009054906101000a900460ff161515036114ad57816040517f8d4ee15a0000000000000000000000000000000000000000000000000000000081526004016114a491906119ac565b60405180910390fd5b6114b561176d565b73ffffffffffffffffffffffffffffffffffffffff16600560009054906101000a900473ffffffffffffffffffffffffffffffffffffffff1673ffffffffffffffffffffffffffffffffffffffff16636352211e846040518263ffffffff1660e01b815260040161152691906119ac565b602060405180830381865afa158015611543573d6000803e3d6000fd5b505050506040513d601f19601f8201168201806040525081019061156791906120ae565b73ffffffffffffffffffffffffffffffffffffffff16146115c85761158a61176d565b826040517f814d13790000000000000000000000000000000000000000000000000000000081526004016115bf9291906120db565b60405180910390fd5b600560009054906101000a900473ffffffffffffffffffffffffffffffffffffffff1673ffffffffffffffffffffffffffffffffffffffff166323b872dd61160e61176d565b30856040518463ffffffff1660e01b815260040161162e93929190612104565b600060405180830381600087803b15801561164857600080fd5b505af115801561165c573d6000803e3d6000fd5b50505050604051806080016040528083815260200182815260200160011515815260200161168861176d565b73ffffffffffffffffffffffffffffffffffffffff1681525060036000848152602001908152602001600020600082015181600001556020820151816001015560408201518160020160006101000a81548160ff02191690831515021790555060608201518160020160016101000a81548173ffffffffffffffffffffffffffffffffffffffff021916908373ffffffffffffffffffffffffffffffffffffffff1602179055509050505050565b60006014600036905010158015611752575061175133610717565b5b1561176657601436033560601c905061176a565b3390505b90565b6000611777611736565b905090565b6118128160405160240161179091906119ac565b6040516020818303038152906040527ff5b1bba9000000000000000000000000000000000000000000000000000000007bffffffffffffffffffffffffffffffffffffffffffffffffffffffff19166020820180517bffffffffffffffffffffffffffffffffffffffffffffffffffffffff8381831617835250505050611815565b50565b60008151905060006a636f6e736f6c652e6c6f679050602083016000808483855afa5050505050565b60405180608001604052806000815260200160008152602001600015158152602001600073ffffffffffffffffffffffffffffffffffffffff1681525090565b6000819050919050565b7f4e487b7100000000000000000000000000000000000000000000000000000000600052601160045260246000fd5b60006118c28261187e565b91506118cd8361187e565b9250827fffffffffffffffffffffffffffffffffffffffffffffffffffffffffffffffff0382111561190257611901611888565b5b828201905092915050565b600080fd5b600073ffffffffffffffffffffffffffffffffffffffff82169050919050565b600061193d82611912565b9050919050565b61194d81611932565b811461195857600080fd5b50565b60008135905061196a81611944565b92915050565b6000602082840312156119865761198561190d565b5b60006119948482850161195b565b91505092915050565b6119a68161187e565b82525050565b60006020820190506119c1600083018461199d565b92915050565b600081519050919050565b600082825260208201905092915050565b6000819050602082019050919050565b6119fc8161187e565b82525050565b60008115159050919050565b611a1781611a02565b82525050565b6000611a2882611912565b9050919050565b611a3881611a1d565b82525050565b608082016000820151611a5460008501826119f3565b506020820151611a6760208501826119f3565b506040820151611a7a6040850182611a0e565b506060820151611a8d6060850182611a2f565b50505050565b6000611a9f8383611a3e565b60808301905092915050565b6000602082019050919050565b6000611ac3826119c7565b611acd81856119d2565b9350611ad8836119e3565b8060005b83811015611b09578151611af08882611a93565b9750611afb83611aab565b925050600181019050611adc565b5085935050505092915050565b60006020820190508181036000830152611b308184611ab8565b905092915050565b611b418161187e565b8114611b4c57600080fd5b50565b600081359050611b5e81611b38565b92915050565b60008060008060808587031215611b7e57611b7d61190d565b5b6000611b8c87828801611b4f565b9450506020611b9d87828801611b4f565b9350506040611bae8782880161195b565b9250506060611bbf87828801611b4f565b91505092959194509250565b600081519050919050565b600082825260208201905092915050565b60005b83811015611c05578082015181840152602081019050611bea565b83811115611c14576000848401525b50505050565b6000601f19601f8301169050919050565b6000611c3682611bcb565b611c408185611bd6565b9350611c50818560208601611be7565b611c5981611c1a565b840191505092915050565b60006020820190508181036000830152611c7e8184611c2b565b905092915050565b611c8f81611a02565b82525050565b6000602082019050611caa6000830184611c86565b92915050565b600060208284031215611cc657611cc561190d565b5b6000611cd484828501611b4f565b91505092915050565b611ce681611a1d565b82525050565b6000608082019050611d01600083018761199d565b611d0e602083018661199d565b611d1b6040830185611c86565b611d286060830184611cdd565b95945050505050565b600080600060608486031215611d4a57611d4961190d565b5b6000611d588682870161195b565b9350506020611d6986828701611b4f565b9250506040611d7a86828701611b4f565b9150509250925092565b611d8d81611932565b82525050565b6000602082019050611da86000830184611d84565b92915050565b60008060408385031215611dc557611dc461190d565b5b6000611dd385828601611b4f565b9250506020611de485828601611b4f565b9150509250929050565b600081519050611dfd81611b38565b92915050565b600060208284031215611e1957611e1861190d565b5b6000611e2784828501611dee565b91505092915050565b7f4e487b7100000000000000000000000000000000000000000000000000000000600052604160045260246000fd5b7f4e487b7100000000000000000000000000000000000000000000000000000000600052603260045260246000fd5b6000611e998261187e565b91507fffffffffffffffffffffffffffffffffffffffffffffffffffffffffffffffff8203611ecb57611eca611888565b5b600182019050919050565b6000608082019050611eeb600083018761199d565b611ef8602083018661199d565b611f056040830185611d84565b611f12606083018461199d565b95945050505050565b7f4e487b7100000000000000000000000000000000000000000000000000000000600052602260045260246000fd5b60006002820490506001821680611f6257607f821691505b602082108103611f7557611f74611f1b565b5b50919050565b7f5265656e7472616e637947756172643a207265656e7472616e742063616c6c00600082015250565b6000611fb1601f83611bd6565b9150611fbc82611f7b565b602082019050919050565b60006020820190508181036000830152611fe081611fa4565b9050919050565b600081905092915050565b50565b6000612002600083611fe7565b915061200d82611ff2565b600082019050919050565b600061202382611ff5565b9150819050919050565b7f5061796d656e74207761736e2774207375636365737366756c6c000000000000600082015250565b6000612063601a83611bd6565b915061206e8261202d565b602082019050919050565b6000602082019050818103600083015261209281612056565b9050919050565b6000815190506120a881611944565b92915050565b6000602082840312156120c4576120c361190d565b5b60006120d284828501612099565b91505092915050565b60006040820190506120f06000830185611d84565b6120fd602083018461199d565b9392505050565b60006060820190506121196000830186611d84565b6121266020830185611d84565b612133604083018461199d565b949350505050565b60006060820190506121506000830186611d84565b61215d602083018561199d565b61216a604083018461199d565b94935050505056fea26469706673582212203ca22bf8b042a8d103156a05762a8c9c43274d16257645cd85cd8c4f121faf5d64736f6c634300080d0033",
  "linkReferences": {},
  "deployedLinkReferences": {}
}