{
  "_format": "hh-sol-artifact-1",
  "contractName": "NFTV2",
  "sourceName": "contracts/NFTV2.sol",
  "abi": [
    {
      "inputs": [
        {
          "internalType": "address",
          "name": "_marketplace",
          "type": "address"
        },
        {
          "internalType": "address",
          "name": "forwarder",
          "type": "address"
        }
      ],
      "stateMutability": "nonpayable",
      "type": "constructor"
    },
    {
      "inputs": [
        {
          "internalType": "uint256",
          "name": "value",
          "type": "uint256"
        }
      ],
      "name": "NftMarketPlace__DidNotPayLISTINGPRICE",
      "type": "error"
    },
    {
      "anonymous": false,
      "inputs": [
        {
          "indexed": true,
          "internalType": "address",
          "name": "owner",
          "type": "address"
        },
        {
          "indexed": true,
          "internalType": "address",
          "name": "approved",
          "type": "address"
        },
        {
          "indexed": true,
          "internalType": "uint256",
          "name": "tokenId",
          "type": "uint256"
        }
      ],
      "name": "Approval",
      "type": "event"
    },
    {
      "anonymous": false,
      "inputs": [
        {
          "indexed": true,
          "internalType": "address",
          "name": "owner",
          "type": "address"
        },
        {
          "indexed": true,
          "internalType": "address",
          "name": "operator",
          "type": "address"
        },
        {
          "indexed": false,
          "internalType": "bool",
          "name": "approved",
          "type": "bool"
        }
      ],
      "name": "ApprovalForAll",
      "type": "event"
    },
    {
      "anonymous": false,
      "inputs": [
        {
          "indexed": true,
          "internalType": "address",
          "name": "from",
          "type": "address"
        },
        {
          "indexed": true,
          "internalType": "address",
          "name": "to",
          "type": "address"
        },
        {
          "indexed": true,
          "internalType": "uint256",
          "name": "tokenId",
          "type": "uint256"
        }
      ],
      "name": "Transfer",
      "type": "event"
    },
    {
      "anonymous": false,
      "inputs": [
        {
          "indexed": true,
          "internalType": "address",
          "name": "nftContractAddress",
          "type": "address"
        },
        {
          "indexed": true,
          "internalType": "uint256",
          "name": "tokenId",
          "type": "uint256"
        },
        {
          "indexed": false,
          "internalType": "uint256",
          "name": "price",
          "type": "uint256"
        },
        {
          "indexed": false,
          "internalType": "bool",
          "name": "onSale",
          "type": "bool"
        },
        {
          "indexed": true,
          "internalType": "address",
          "name": "owner",
          "type": "address"
        },
        {
          "indexed": false,
          "internalType": "address",
          "name": "seller",
          "type": "address"
        },
        {
          "indexed": false,
          "internalType": "address",
          "name": "minter",
          "type": "address"
        }
      ],
      "name": "marketItemCreated",
      "type": "event"
    },
    {
      "inputs": [],
      "name": "LISTINGPRICE",
      "outputs": [
        {
          "internalType": "uint256",
          "name": "",
          "type": "uint256"
        }
      ],
      "stateMutability": "view",
      "type": "function"
    },
    {
      "inputs": [
        {
          "internalType": "address",
          "name": "to",
          "type": "address"
        },
        {
          "internalType": "uint256",
          "name": "tokenId",
          "type": "uint256"
        }
      ],
      "name": "approve",
      "outputs": [],
      "stateMutability": "nonpayable",
      "type": "function"
    },
    {
      "inputs": [
        {
          "internalType": "address",
          "name": "owner",
          "type": "address"
        }
      ],
      "name": "balanceOf",
      "outputs": [
        {
          "internalType": "uint256",
          "name": "",
          "type": "uint256"
        }
      ],
      "stateMutability": "view",
      "type": "function"
    },
    {
      "inputs": [
        {
          "internalType": "string",
          "name": "tokenURI",
          "type": "string"
        }
      ],
      "name": "createNFT",
      "outputs": [
        {
          "internalType": "uint256",
          "name": "",
          "type": "uint256"
        }
      ],
      "stateMutability": "payable",
      "type": "function"
    },
    {
      "inputs": [
        {
          "internalType": "uint256",
          "name": "tokenId",
          "type": "uint256"
        }
      ],
      "name": "getApproved",
      "outputs": [
        {
          "internalType": "address",
          "name": "",
          "type": "address"
        }
      ],
      "stateMutability": "view",
      "type": "function"
    },
    {
      "inputs": [],
      "name": "getMintedTokens",
      "outputs": [
        {
          "internalType": "uint256[]",
          "name": "",
          "type": "uint256[]"
        }
      ],
      "stateMutability": "view",
      "type": "function"
    },
    {
      "inputs": [],
      "name": "getTrustedForwarder",
      "outputs": [
        {
          "internalType": "address",
          "name": "forwarder",
          "type": "address"
        }
      ],
      "stateMutability": "view",
      "type": "function"
    },
    {
      "inputs": [
        {
          "internalType": "address",
          "name": "owner",
          "type": "address"
        },
        {
          "internalType": "address",
          "name": "operator",
          "type": "address"
        }
      ],
      "name": "isApprovedForAll",
      "outputs": [
        {
          "internalType": "bool",
          "name": "",
          "type": "bool"
        }
      ],
      "stateMutability": "view",
      "type": "function"
    },
    {
      "inputs": [
        {
          "internalType": "address",
          "name": "forwarder",
          "type": "address"
        }
      ],
      "name": "isTrustedForwarder",
      "outputs": [
        {
          "internalType": "bool",
          "name": "",
          "type": "bool"
        }
      ],
      "stateMutability": "view",
      "type": "function"
    },
    {
      "inputs": [],
      "name": "name",
      "outputs": [
        {
          "internalType": "string",
          "name": "",
          "type": "string"
        }
      ],
      "stateMutability": "view",
      "type": "function"
    },
    {
      "inputs": [
        {
          "internalType": "uint256",
          "name": "tokenId",
          "type": "uint256"
        }
      ],
      "name": "ownerOf",
      "outputs": [
        {
          "internalType": "address",
          "name": "",
          "type": "address"
        }
      ],
      "stateMutability": "view",
      "type": "function"
    },
    {
      "inputs": [],
      "name": "s_tokenIds",
      "outputs": [
        {
          "internalType": "uint256",
          "name": "_value",
          "type": "uint256"
        }
      ],
      "stateMutability": "view",
      "type": "function"
    },
    {
      "inputs": [
        {
          "internalType": "address",
          "name": "from",
          "type": "address"
        },
        {
          "internalType": "address",
          "name": "to",
          "type": "address"
        },
        {
          "internalType": "uint256",
          "name": "tokenId",
          "type": "uint256"
        }
      ],
      "name": "safeTransferFrom",
      "outputs": [],
      "stateMutability": "nonpayable",
      "type": "function"
    },
    {
      "inputs": [
        {
          "internalType": "address",
          "name": "from",
          "type": "address"
        },
        {
          "internalType": "address",
          "name": "to",
          "type": "address"
        },
        {
          "internalType": "uint256",
          "name": "tokenId",
          "type": "uint256"
        },
        {
          "internalType": "bytes",
          "name": "_data",
          "type": "bytes"
        }
      ],
      "name": "safeTransferFrom",
      "outputs": [],
      "stateMutability": "nonpayable",
      "type": "function"
    },
    {
      "inputs": [
        {
          "internalType": "address",
          "name": "operator",
          "type": "address"
        },
        {
          "internalType": "bool",
          "name": "approved",
          "type": "bool"
        }
      ],
      "name": "setApprovalForAll",
      "outputs": [],
      "stateMutability": "nonpayable",
      "type": "function"
    },
    {
      "inputs": [
        {
          "internalType": "bytes4",
          "name": "interfaceId",
          "type": "bytes4"
        }
      ],
      "name": "supportsInterface",
      "outputs": [
        {
          "internalType": "bool",
          "name": "",
          "type": "bool"
        }
      ],
      "stateMutability": "view",
      "type": "function"
    },
    {
      "inputs": [],
      "name": "symbol",
      "outputs": [
        {
          "internalType": "string",
          "name": "",
          "type": "string"
        }
      ],
      "stateMutability": "view",
      "type": "function"
    },
    {
      "inputs": [
        {
          "internalType": "uint256",
          "name": "tokenId",
          "type": "uint256"
        }
      ],
      "name": "tokenURI",
      "outputs": [
        {
          "internalType": "string",
          "name": "",
          "type": "string"
        }
      ],
      "stateMutability": "view",
      "type": "function"
    },
    {
      "inputs": [
        {
          "internalType": "address",
          "name": "from",
          "type": "address"
        },
        {
          "internalType": "address",
          "name": "to",
          "type": "address"
        },
        {
          "internalType": "uint256",
          "name": "tokenId",
          "type": "uint256"
        }
      ],
      "name": "transferFrom",
      "outputs": [],
      "stateMutability": "nonpayable",
      "type": "function"
    },
    {
      "inputs": [],
      "name": "versionRecipient",
      "outputs": [
        {
          "internalType": "string",
          "name": "",
          "type": "string"
        }
      ],
      "stateMutability": "view",
      "type": "function"
    }
  ],
  "bytecode": "0x60a06040526040518060400160405280600681526020017f76302e302e3100000000000000000000000000000000000000000000000000008152506008908051906020019062000051929190620001b6565b503480156200005f57600080fd5b5060405162003824380380620038248339818101604052810190620000859190620002d0565b6040518060400160405280600a81526020017f4170652046616d696c79000000000000000000000000000000000000000000008152506040518060400160405280600381526020017f4150460000000000000000000000000000000000000000000000000000000000815250816000908051906020019062000109929190620001b6565b50806001908051906020019062000122929190620001b6565b5050508173ffffffffffffffffffffffffffffffffffffffff1660808173ffffffffffffffffffffffffffffffffffffffff16815250506200016a816200017260201b60201c565b50506200037b565b80600760006101000a81548173ffffffffffffffffffffffffffffffffffffffff021916908373ffffffffffffffffffffffffffffffffffffffff16021790555050565b828054620001c49062000346565b90600052602060002090601f016020900481019282620001e8576000855562000234565b82601f106200020357805160ff191683800117855562000234565b8280016001018555821562000234579182015b828111156200023357825182559160200191906001019062000216565b5b50905062000243919062000247565b5090565b5b808211156200026257600081600090555060010162000248565b5090565b600080fd5b600073ffffffffffffffffffffffffffffffffffffffff82169050919050565b600062000298826200026b565b9050919050565b620002aa816200028b565b8114620002b657600080fd5b50565b600081519050620002ca816200029f565b92915050565b60008060408385031215620002ea57620002e962000266565b5b6000620002fa85828601620002b9565b92505060206200030d85828601620002b9565b9150509250929050565b7f4e487b7100000000000000000000000000000000000000000000000000000000600052602260045260246000fd5b600060028204905060018216806200035f57607f821691505b60208210810362000375576200037462000317565b5b50919050565b6080516134866200039e60003960008181610dfa0152610e9101526134866000f3fe60806040526004361061011f5760003560e01c806370a08231116100a0578063c87b56dd11610064578063c87b56dd146103f9578063ce1b815f14610436578063da2ed03e14610461578063dc96529014610491578063e985e9c5146104bc5761011f565b806370a082311461031457806395d89b4114610351578063a22cb4651461037c578063a80df8c0146103a5578063b88d4fde146103d05761011f565b806342842e0e116100e757806342842e0e1461021b578063486ff0cd14610244578063572b6c051461026f578063627f0c28146102ac5780636352211e146102d75761011f565b806301ffc9a71461012457806306fdde0314610161578063081812fc1461018c578063095ea7b3146101c957806323b872dd146101f2575b600080fd5b34801561013057600080fd5b5061014b60048036038101906101469190611fbb565b6104f9565b6040516101589190612003565b60405180910390f35b34801561016d57600080fd5b506101766105db565b60405161018391906120b7565b60405180910390f35b34801561019857600080fd5b506101b360048036038101906101ae919061210f565b61066d565b6040516101c0919061217d565b60405180910390f35b3480156101d557600080fd5b506101f060048036038101906101eb91906121c4565b6106f2565b005b3480156101fe57600080fd5b5061021960048036038101906102149190612204565b610809565b005b34801561022757600080fd5b50610242600480360381019061023d9190612204565b610869565b005b34801561025057600080fd5b50610259610889565b60405161026691906120b7565b60405180910390f35b34801561027b57600080fd5b5061029660048036038101906102919190612257565b610917565b6040516102a39190612003565b60405180910390f35b3480156102b857600080fd5b506102c1610971565b6040516102ce9190612293565b60405180910390f35b3480156102e357600080fd5b506102fe60048036038101906102f9919061210f565b61097d565b60405161030b919061217d565b60405180910390f35b34801561032057600080fd5b5061033b60048036038101906103369190612257565b610a2e565b6040516103489190612293565b60405180910390f35b34801561035d57600080fd5b50610366610ae5565b60405161037391906120b7565b60405180910390f35b34801561038857600080fd5b506103a3600480360381019061039e91906122da565b610b77565b005b3480156103b157600080fd5b506103ba610b8d565b6040516103c79190612293565b60405180910390f35b3480156103dc57600080fd5b506103f760048036038101906103f2919061244f565b610b98565b005b34801561040557600080fd5b50610420600480360381019061041b919061210f565b610bfa565b60405161042d91906120b7565b60405180910390f35b34801561044257600080fd5b5061044b610d4b565b604051610458919061217d565b60405180910390f35b61047b60048036038101906104769190612573565b610d75565b6040516104889190612293565b60405180910390f35b34801561049d57600080fd5b506104a6610fdf565b6040516104b3919061267a565b60405180910390f35b3480156104c857600080fd5b506104e360048036038101906104de919061269c565b61107b565b6040516104f09190612003565b60405180910390f35b60007f80ac58cd000000000000000000000000000000000000000000000000000000007bffffffffffffffffffffffffffffffffffffffffffffffffffffffff1916827bffffffffffffffffffffffffffffffffffffffffffffffffffffffff191614806105c457507f5b5e139f000000000000000000000000000000000000000000000000000000007bffffffffffffffffffffffffffffffffffffffffffffffffffffffff1916827bffffffffffffffffffffffffffffffffffffffffffffffffffffffff1916145b806105d457506105d38261110f565b5b9050919050565b6060600080546105ea9061270b565b80601f01602080910402602001604051908101604052809291908181526020018280546106169061270b565b80156106635780601f1061063857610100808354040283529160200191610663565b820191906000526020600020905b81548152906001019060200180831161064657829003601f168201915b5050505050905090565b600061067882611179565b6106b7576040517f08c379a00000000000000000000000000000000000000000000000000000000081526004016106ae906127ae565b60405180910390fd5b6004600083815260200190815260200160002060009054906101000a900473ffffffffffffffffffffffffffffffffffffffff169050919050565b60006106fd8261097d565b90508073ffffffffffffffffffffffffffffffffffffffff168373ffffffffffffffffffffffffffffffffffffffff160361076d576040517f08c379a000000000000000000000000000000000000000000000000000000000815260040161076490612840565b60405180910390fd5b8073ffffffffffffffffffffffffffffffffffffffff1661078c6111e5565b73ffffffffffffffffffffffffffffffffffffffff1614806107bb57506107ba816107b56111e5565b61107b565b5b6107fa576040517f08c379a00000000000000000000000000000000000000000000000000000000081526004016107f1906128d2565b60405180910390fd5b61080483836111f4565b505050565b61081a6108146111e5565b826112ad565b610859576040517f08c379a000000000000000000000000000000000000000000000000000000000815260040161085090612964565b60405180910390fd5b61086483838361138b565b505050565b61088483838360405180602001604052806000815250610b98565b505050565b600880546108969061270b565b80601f01602080910402602001604051908101604052809291908181526020018280546108c29061270b565b801561090f5780601f106108e45761010080835404028352916020019161090f565b820191906000526020600020905b8154815290600101906020018083116108f257829003601f168201915b505050505081565b6000600760009054906101000a900473ffffffffffffffffffffffffffffffffffffffff1673ffffffffffffffffffffffffffffffffffffffff168273ffffffffffffffffffffffffffffffffffffffff16149050919050565b60098060000154905081565b6000806002600084815260200190815260200160002060009054906101000a900473ffffffffffffffffffffffffffffffffffffffff169050600073ffffffffffffffffffffffffffffffffffffffff168173ffffffffffffffffffffffffffffffffffffffff1603610a25576040517f08c379a0000000000000000000000000000000000000000000000000000000008152600401610a1c906129f6565b60405180910390fd5b80915050919050565b60008073ffffffffffffffffffffffffffffffffffffffff168273ffffffffffffffffffffffffffffffffffffffff1603610a9e576040517f08c379a0000000000000000000000000000000000000000000000000000000008152600401610a9590612a88565b60405180910390fd5b600360008373ffffffffffffffffffffffffffffffffffffffff1673ffffffffffffffffffffffffffffffffffffffff168152602001908152602001600020549050919050565b606060018054610af49061270b565b80601f0160208091040260200160405190810160405280929190818152602001828054610b209061270b565b8015610b6d5780601f10610b4257610100808354040283529160200191610b6d565b820191906000526020600020905b815481529060010190602001808311610b5057829003601f168201915b5050505050905090565b610b89610b826111e5565b83836115f1565b5050565b66071afd498d000081565b610ba9610ba36111e5565b836112ad565b610be8576040517f08c379a0000000000000000000000000000000000000000000000000000000008152600401610bdf90612964565b60405180910390fd5b610bf48484848461175d565b50505050565b6060610c0582611179565b610c44576040517f08c379a0000000000000000000000000000000000000000000000000000000008152600401610c3b90612b1a565b60405180910390fd5b6000600660008481526020019081526020016000208054610c649061270b565b80601f0160208091040260200160405190810160405280929190818152602001828054610c909061270b565b8015610cdd5780601f10610cb257610100808354040283529160200191610cdd565b820191906000526020600020905b815481529060010190602001808311610cc057829003601f168201915b505050505090506000610cee6117b9565b90506000815103610d03578192505050610d46565b600082511115610d38578082604051602001610d20929190612b76565b60405160208183030381529060405292505050610d46565b610d41846117d0565b925050505b919050565b6000600760009054906101000a900473ffffffffffffffffffffffffffffffffffffffff16905090565b600066071afd498d00003414610dc257346040517f0c3cfc1f000000000000000000000000000000000000000000000000000000008152600401610db99190612293565b60405180910390fd5b610dcc6009611877565b6000610dd8600961188d565b9050610deb610de56111e5565b8261189b565b610df581846118b9565b610e207f00000000000000000000000000000000000000000000000000000000000000006001610b77565b600a6000610e2c6111e5565b73ffffffffffffffffffffffffffffffffffffffff1673ffffffffffffffffffffffffffffffffffffffff16815260200190815260200160002081908060018154018082558091505060019003906000526020600020016000909190919091505560007f000000000000000000000000000000000000000000000000000000000000000073ffffffffffffffffffffffffffffffffffffffff1634604051610ed390612bcb565b60006040518083038185875af1925050503d8060008114610f10576040519150601f19603f3d011682016040523d82523d6000602084013e610f15565b606091505b5050905080610f59576040517f08c379a0000000000000000000000000000000000000000000000000000000008152600401610f5090612c52565b60405180910390fd5b610f616111e5565b73ffffffffffffffffffffffffffffffffffffffff16823073ffffffffffffffffffffffffffffffffffffffff167f9dcc3573116b077cd633ea2be8f76d15617a8ab58fb28ba75f89e5d778db07ca6000806000610fbd6111e5565b604051610fcd9493929190612cb7565b60405180910390a48192505050919050565b6060600a6000610fed6111e5565b73ffffffffffffffffffffffffffffffffffffffff1673ffffffffffffffffffffffffffffffffffffffff16815260200190815260200160002080548060200260200160405190810160405280929190818152602001828054801561107157602002820191906000526020600020905b81548152602001906001019080831161105d575b5050505050905090565b6000600560008473ffffffffffffffffffffffffffffffffffffffff1673ffffffffffffffffffffffffffffffffffffffff16815260200190815260200160002060008373ffffffffffffffffffffffffffffffffffffffff1673ffffffffffffffffffffffffffffffffffffffff16815260200190815260200160002060009054906101000a900460ff16905092915050565b60007f01ffc9a7000000000000000000000000000000000000000000000000000000007bffffffffffffffffffffffffffffffffffffffffffffffffffffffff1916827bffffffffffffffffffffffffffffffffffffffffffffffffffffffff1916149050919050565b60008073ffffffffffffffffffffffffffffffffffffffff166002600084815260200190815260200160002060009054906101000a900473ffffffffffffffffffffffffffffffffffffffff1673ffffffffffffffffffffffffffffffffffffffff1614159050919050565b60006111ef61192d565b905090565b816004600083815260200190815260200160002060006101000a81548173ffffffffffffffffffffffffffffffffffffffff021916908373ffffffffffffffffffffffffffffffffffffffff160217905550808273ffffffffffffffffffffffffffffffffffffffff166112678361097d565b73ffffffffffffffffffffffffffffffffffffffff167f8c5be1e5ebec7d5bd14f71427d1e84f3dd0314c0f7b2291e5b200ac8c7c3b92560405160405180910390a45050565b60006112b882611179565b6112f7576040517f08c379a00000000000000000000000000000000000000000000000000000000081526004016112ee90612d6e565b60405180910390fd5b60006113028361097d565b90508073ffffffffffffffffffffffffffffffffffffffff168473ffffffffffffffffffffffffffffffffffffffff16148061137157508373ffffffffffffffffffffffffffffffffffffffff166113598461066d565b73ffffffffffffffffffffffffffffffffffffffff16145b806113825750611381818561107b565b5b91505092915050565b8273ffffffffffffffffffffffffffffffffffffffff166113ab8261097d565b73ffffffffffffffffffffffffffffffffffffffff1614611401576040517f08c379a00000000000000000000000000000000000000000000000000000000081526004016113f890612e00565b60405180910390fd5b600073ffffffffffffffffffffffffffffffffffffffff168273ffffffffffffffffffffffffffffffffffffffff1603611470576040517f08c379a000000000000000000000000000000000000000000000000000000000815260040161146790612e92565b60405180910390fd5b61147b838383611964565b6114866000826111f4565b6001600360008573ffffffffffffffffffffffffffffffffffffffff1673ffffffffffffffffffffffffffffffffffffffff16815260200190815260200160002060008282546114d69190612ee1565b925050819055506001600360008473ffffffffffffffffffffffffffffffffffffffff1673ffffffffffffffffffffffffffffffffffffffff168152602001908152602001600020600082825461152d9190612f15565b92505081905550816002600083815260200190815260200160002060006101000a81548173ffffffffffffffffffffffffffffffffffffffff021916908373ffffffffffffffffffffffffffffffffffffffff160217905550808273ffffffffffffffffffffffffffffffffffffffff168473ffffffffffffffffffffffffffffffffffffffff167fddf252ad1be2c89b69c2b068fc378daa952ba7f163c4a11628f55a4df523b3ef60405160405180910390a46115ec838383611969565b505050565b8173ffffffffffffffffffffffffffffffffffffffff168373ffffffffffffffffffffffffffffffffffffffff160361165f576040517f08c379a000000000000000000000000000000000000000000000000000000000815260040161165690612fb7565b60405180910390fd5b80600560008573ffffffffffffffffffffffffffffffffffffffff1673ffffffffffffffffffffffffffffffffffffffff16815260200190815260200160002060008473ffffffffffffffffffffffffffffffffffffffff1673ffffffffffffffffffffffffffffffffffffffff16815260200190815260200160002060006101000a81548160ff0219169083151502179055508173ffffffffffffffffffffffffffffffffffffffff168373ffffffffffffffffffffffffffffffffffffffff167f17307eab39ab6107e8899845ad3d59bd9653f200f220920489ca2b5937696c31836040516117509190612003565b60405180910390a3505050565b61176884848461138b565b6117748484848461196e565b6117b3576040517f08c379a00000000000000000000000000000000000000000000000000000000081526004016117aa90613049565b60405180910390fd5b50505050565b606060405180602001604052806000815250905090565b60606117db82611179565b61181a576040517f08c379a0000000000000000000000000000000000000000000000000000000008152600401611811906130db565b60405180910390fd5b60006118246117b9565b90506000815111611844576040518060200160405280600081525061186f565b8061184e84611af5565b60405160200161185f929190612b76565b6040516020818303038152906040525b915050919050565b6001816000016000828254019250508190555050565b600081600001549050919050565b6118b5828260405180602001604052806000815250611c55565b5050565b6118c282611179565b611901576040517f08c379a00000000000000000000000000000000000000000000000000000000081526004016118f89061316d565b60405180910390fd5b80600660008481526020019081526020016000209080519060200190611928929190611eac565b505050565b60006014600036905010158015611949575061194833610917565b5b1561195d57601436033560601c9050611961565b3390505b90565b505050565b505050565b600061198f8473ffffffffffffffffffffffffffffffffffffffff16611cb0565b15611ae8578373ffffffffffffffffffffffffffffffffffffffff1663150b7a026119b86111e5565b8786866040518563ffffffff1660e01b81526004016119da94939291906131e2565b6020604051808303816000875af1925050508015611a1657506040513d601f19601f82011682018060405250810190611a139190613243565b60015b611a98573d8060008114611a46576040519150601f19603f3d011682016040523d82523d6000602084013e611a4b565b606091505b506000815103611a90576040517f08c379a0000000000000000000000000000000000000000000000000000000008152600401611a8790613049565b60405180910390fd5b805181602001fd5b63150b7a0260e01b7bffffffffffffffffffffffffffffffffffffffffffffffffffffffff1916817bffffffffffffffffffffffffffffffffffffffffffffffffffffffff191614915050611aed565b600190505b949350505050565b606060008203611b3c576040518060400160405280600181526020017f30000000000000000000000000000000000000000000000000000000000000008152509050611c50565b600082905060005b60008214611b6e578080611b5790613270565b915050600a82611b6791906132e7565b9150611b44565b60008167ffffffffffffffff811115611b8a57611b89612324565b5b6040519080825280601f01601f191660200182016040528015611bbc5781602001600182028036833780820191505090505b5090505b60008514611c4957600182611bd59190612ee1565b9150600a85611be49190613318565b6030611bf09190612f15565b60f81b818381518110611c0657611c05613349565b5b60200101907effffffffffffffffffffffffffffffffffffffffffffffffffffffffffffff1916908160001a905350600a85611c4291906132e7565b9450611bc0565b8093505050505b919050565b611c5f8383611cd3565b611c6c600084848461196e565b611cab576040517f08c379a0000000000000000000000000000000000000000000000000000000008152600401611ca290613049565b60405180910390fd5b505050565b6000808273ffffffffffffffffffffffffffffffffffffffff163b119050919050565b600073ffffffffffffffffffffffffffffffffffffffff168273ffffffffffffffffffffffffffffffffffffffff1603611d42576040517f08c379a0000000000000000000000000000000000000000000000000000000008152600401611d39906133c4565b60405180910390fd5b611d4b81611179565b15611d8b576040517f08c379a0000000000000000000000000000000000000000000000000000000008152600401611d8290613430565b60405180910390fd5b611d9760008383611964565b6001600360008473ffffffffffffffffffffffffffffffffffffffff1673ffffffffffffffffffffffffffffffffffffffff1681526020019081526020016000206000828254611de79190612f15565b92505081905550816002600083815260200190815260200160002060006101000a81548173ffffffffffffffffffffffffffffffffffffffff021916908373ffffffffffffffffffffffffffffffffffffffff160217905550808273ffffffffffffffffffffffffffffffffffffffff16600073ffffffffffffffffffffffffffffffffffffffff167fddf252ad1be2c89b69c2b068fc378daa952ba7f163c4a11628f55a4df523b3ef60405160405180910390a4611ea860008383611969565b5050565b828054611eb89061270b565b90600052602060002090601f016020900481019282611eda5760008555611f21565b82601f10611ef357805160ff1916838001178555611f21565b82800160010185558215611f21579182015b82811115611f20578251825591602001919060010190611f05565b5b509050611f2e9190611f32565b5090565b5b80821115611f4b576000816000905550600101611f33565b5090565b6000604051905090565b600080fd5b600080fd5b60007fffffffff0000000000000000000000000000000000000000000000000000000082169050919050565b611f9881611f63565b8114611fa357600080fd5b50565b600081359050611fb581611f8f565b92915050565b600060208284031215611fd157611fd0611f59565b5b6000611fdf84828501611fa6565b91505092915050565b60008115159050919050565b611ffd81611fe8565b82525050565b60006020820190506120186000830184611ff4565b92915050565b600081519050919050565b600082825260208201905092915050565b60005b8381101561205857808201518184015260208101905061203d565b83811115612067576000848401525b50505050565b6000601f19601f8301169050919050565b60006120898261201e565b6120938185612029565b93506120a381856020860161203a565b6120ac8161206d565b840191505092915050565b600060208201905081810360008301526120d1818461207e565b905092915050565b6000819050919050565b6120ec816120d9565b81146120f757600080fd5b50565b600081359050612109816120e3565b92915050565b60006020828403121561212557612124611f59565b5b6000612133848285016120fa565b91505092915050565b600073ffffffffffffffffffffffffffffffffffffffff82169050919050565b60006121678261213c565b9050919050565b6121778161215c565b82525050565b6000602082019050612192600083018461216e565b92915050565b6121a18161215c565b81146121ac57600080fd5b50565b6000813590506121be81612198565b92915050565b600080604083850312156121db576121da611f59565b5b60006121e9858286016121af565b92505060206121fa858286016120fa565b9150509250929050565b60008060006060848603121561221d5761221c611f59565b5b600061222b868287016121af565b935050602061223c868287016121af565b925050604061224d868287016120fa565b9150509250925092565b60006020828403121561226d5761226c611f59565b5b600061227b848285016121af565b91505092915050565b61228d816120d9565b82525050565b60006020820190506122a86000830184612284565b92915050565b6122b781611fe8565b81146122c257600080fd5b50565b6000813590506122d4816122ae565b92915050565b600080604083850312156122f1576122f0611f59565b5b60006122ff858286016121af565b9250506020612310858286016122c5565b9150509250929050565b600080fd5b600080fd5b7f4e487b7100000000000000000000000000000000000000000000000000000000600052604160045260246000fd5b61235c8261206d565b810181811067ffffffffffffffff8211171561237b5761237a612324565b5b80604052505050565b600061238e611f4f565b905061239a8282612353565b919050565b600067ffffffffffffffff8211156123ba576123b9612324565b5b6123c38261206d565b9050602081019050919050565b82818337600083830152505050565b60006123f26123ed8461239f565b612384565b90508281526020810184848401111561240e5761240d61231f565b5b6124198482856123d0565b509392505050565b600082601f8301126124365761243561231a565b5b81356124468482602086016123df565b91505092915050565b6000806000806080858703121561246957612468611f59565b5b6000612477878288016121af565b9450506020612488878288016121af565b9350506040612499878288016120fa565b925050606085013567ffffffffffffffff8111156124ba576124b9611f5e565b5b6124c687828801612421565b91505092959194509250565b600067ffffffffffffffff8211156124ed576124ec612324565b5b6124f68261206d565b9050602081019050919050565b6000612516612511846124d2565b612384565b9050828152602081018484840111156125325761253161231f565b5b61253d8482856123d0565b509392505050565b600082601f83011261255a5761255961231a565b5b813561256a848260208601612503565b91505092915050565b60006020828403121561258957612588611f59565b5b600082013567ffffffffffffffff8111156125a7576125a6611f5e565b5b6125b384828501612545565b91505092915050565b600081519050919050565b600082825260208201905092915050565b6000819050602082019050919050565b6125f1816120d9565b82525050565b600061260383836125e8565b60208301905092915050565b6000602082019050919050565b6000612627826125bc565b61263181856125c7565b935061263c836125d8565b8060005b8381101561266d57815161265488826125f7565b975061265f8361260f565b925050600181019050612640565b5085935050505092915050565b60006020820190508181036000830152612694818461261c565b905092915050565b600080604083850312156126b3576126b2611f59565b5b60006126c1858286016121af565b92505060206126d2858286016121af565b9150509250929050565b7f4e487b7100000000000000000000000000000000000000000000000000000000600052602260045260246000fd5b6000600282049050600182168061272357607f821691505b602082108103612736576127356126dc565b5b50919050565b7f4552433732313a20617070726f76656420717565727920666f72206e6f6e657860008201527f697374656e7420746f6b656e0000000000000000000000000000000000000000602082015250565b6000612798602c83612029565b91506127a38261273c565b604082019050919050565b600060208201905081810360008301526127c78161278b565b9050919050565b7f4552433732313a20617070726f76616c20746f2063757272656e74206f776e6560008201527f7200000000000000000000000000000000000000000000000000000000000000602082015250565b600061282a602183612029565b9150612835826127ce565b604082019050919050565b600060208201905081810360008301526128598161281d565b9050919050565b7f4552433732313a20617070726f76652063616c6c6572206973206e6f74206f7760008201527f6e6572206e6f7220617070726f76656420666f7220616c6c0000000000000000602082015250565b60006128bc603883612029565b91506128c782612860565b604082019050919050565b600060208201905081810360008301526128eb816128af565b9050919050565b7f4552433732313a207472616e736665722063616c6c6572206973206e6f74206f60008201527f776e6572206e6f7220617070726f766564000000000000000000000000000000602082015250565b600061294e603183612029565b9150612959826128f2565b604082019050919050565b6000602082019050818103600083015261297d81612941565b9050919050565b7f4552433732313a206f776e657220717565727920666f72206e6f6e657869737460008201527f656e7420746f6b656e0000000000000000000000000000000000000000000000602082015250565b60006129e0602983612029565b91506129eb82612984565b604082019050919050565b60006020820190508181036000830152612a0f816129d3565b9050919050565b7f4552433732313a2062616c616e636520717565727920666f7220746865207a6560008201527f726f206164647265737300000000000000000000000000000000000000000000602082015250565b6000612a72602a83612029565b9150612a7d82612a16565b604082019050919050565b60006020820190508181036000830152612aa181612a65565b9050919050565b7f45524337323155524953746f726167653a2055524920717565727920666f722060008201527f6e6f6e6578697374656e7420746f6b656e000000000000000000000000000000602082015250565b6000612b04603183612029565b9150612b0f82612aa8565b604082019050919050565b60006020820190508181036000830152612b3381612af7565b9050919050565b600081905092915050565b6000612b508261201e565b612b5a8185612b3a565b9350612b6a81856020860161203a565b80840191505092915050565b6000612b828285612b45565b9150612b8e8284612b45565b91508190509392505050565b600081905092915050565b50565b6000612bb5600083612b9a565b9150612bc082612ba5565b600082019050919050565b6000612bd682612ba8565b9150819050919050565b7f6c697374696e675072696365207472616e73666572207761736e27742073756360008201527f6365737366756c6c000000000000000000000000000000000000000000000000602082015250565b6000612c3c602883612029565b9150612c4782612be0565b604082019050919050565b60006020820190508181036000830152612c6b81612c2f565b9050919050565b6000819050919050565b6000819050919050565b6000612ca1612c9c612c9784612c72565b612c7c565b6120d9565b9050919050565b612cb181612c86565b82525050565b6000608082019050612ccc6000830187612ca8565b612cd96020830186611ff4565b612ce6604083018561216e565b612cf3606083018461216e565b95945050505050565b7f4552433732313a206f70657261746f7220717565727920666f72206e6f6e657860008201527f697374656e7420746f6b656e0000000000000000000000000000000000000000602082015250565b6000612d58602c83612029565b9150612d6382612cfc565b604082019050919050565b60006020820190508181036000830152612d8781612d4b565b9050919050565b7f4552433732313a207472616e736665722066726f6d20696e636f72726563742060008201527f6f776e6572000000000000000000000000000000000000000000000000000000602082015250565b6000612dea602583612029565b9150612df582612d8e565b604082019050919050565b60006020820190508181036000830152612e1981612ddd565b9050919050565b7f4552433732313a207472616e7366657220746f20746865207a65726f2061646460008201527f7265737300000000000000000000000000000000000000000000000000000000602082015250565b6000612e7c602483612029565b9150612e8782612e20565b604082019050919050565b60006020820190508181036000830152612eab81612e6f565b9050919050565b7f4e487b7100000000000000000000000000000000000000000000000000000000600052601160045260246000fd5b6000612eec826120d9565b9150612ef7836120d9565b925082821015612f0a57612f09612eb2565b5b828203905092915050565b6000612f20826120d9565b9150612f2b836120d9565b9250827fffffffffffffffffffffffffffffffffffffffffffffffffffffffffffffffff03821115612f6057612f5f612eb2565b5b828201905092915050565b7f4552433732313a20617070726f766520746f2063616c6c657200000000000000600082015250565b6000612fa1601983612029565b9150612fac82612f6b565b602082019050919050565b60006020820190508181036000830152612fd081612f94565b9050919050565b7f4552433732313a207472616e7366657220746f206e6f6e20455243373231526560008201527f63656976657220696d706c656d656e7465720000000000000000000000000000602082015250565b6000613033603283612029565b915061303e82612fd7565b604082019050919050565b6000602082019050818103600083015261306281613026565b9050919050565b7f4552433732314d657461646174613a2055524920717565727920666f72206e6f60008201527f6e6578697374656e7420746f6b656e0000000000000000000000000000000000602082015250565b60006130c5602f83612029565b91506130d082613069565b604082019050919050565b600060208201905081810360008301526130f4816130b8565b9050919050565b7f45524337323155524953746f726167653a2055524920736574206f66206e6f6e60008201527f6578697374656e7420746f6b656e000000000000000000000000000000000000602082015250565b6000613157602e83612029565b9150613162826130fb565b604082019050919050565b600060208201905081810360008301526131868161314a565b9050919050565b600081519050919050565b600082825260208201905092915050565b60006131b48261318d565b6131be8185613198565b93506131ce81856020860161203a565b6131d78161206d565b840191505092915050565b60006080820190506131f7600083018761216e565b613204602083018661216e565b6132116040830185612284565b818103606083015261322381846131a9565b905095945050505050565b60008151905061323d81611f8f565b92915050565b60006020828403121561325957613258611f59565b5b60006132678482850161322e565b91505092915050565b600061327b826120d9565b91507fffffffffffffffffffffffffffffffffffffffffffffffffffffffffffffffff82036132ad576132ac612eb2565b5b600182019050919050565b7f4e487b7100000000000000000000000000000000000000000000000000000000600052601260045260246000fd5b60006132f2826120d9565b91506132fd836120d9565b92508261330d5761330c6132b8565b5b828204905092915050565b6000613323826120d9565b915061332e836120d9565b92508261333e5761333d6132b8565b5b828206905092915050565b7f4e487b7100000000000000000000000000000000000000000000000000000000600052603260045260246000fd5b7f4552433732313a206d696e7420746f20746865207a65726f2061646472657373600082015250565b60006133ae602083612029565b91506133b982613378565b602082019050919050565b600060208201905081810360008301526133dd816133a1565b9050919050565b7f4552433732313a20746f6b656e20616c7265616479206d696e74656400000000600082015250565b600061341a601c83612029565b9150613425826133e4565b602082019050919050565b600060208201905081810360008301526134498161340d565b905091905056fea264697066735822122033d7dc148f668cdd75e24c089630d1ded5324f9d9ed0507865cc4fa47ce667f664736f6c634300080d0033",
  "linkReferences": {},
  "deployedLinkReferences": {}
}